:020000041000EA
:1000000000B50C4B00219960042159610A4919601F
:100010000A490B480160002159600121996001BC27
:10002000002800D0004707480749086003C880F34C
:10003000088808470000001800031F00180200038A
:10004000F40000180001001008ED00E000000000BE
:1000500000000000000000000000000000000000A0
:100060000000000000000000000000000000000090
:100070000000000000000000000000000000000080
:100080000000000000000000000000000000000070
:100090000000000000000000000000000000000060
:1000A0000000000000000000000000000000000050
:1000B0000000000000000000000000000000000040
:1000C0000000000000000000000000000000000030
:1000D0000000000000000000000000000000000020
:1000E0000000000000000000000000000000000010
:1000F0000000000000000000000000002CEC210DBA
:1001000000200420F7010010C3010010C5010010F9
:10011000C1010010C1010010C1010010C101001097
:10012000C1010010C1010010C1010010C701001081
:10013000C1010010C1010010C9010010CB01001065
:10014000CD010010CD010010CD010010CD01001037
:10015000CD010010CD010010CD010010CD01001027
:10016000CD010010CD010010CD010010CD01001017
:10017000CD010010CD010010CD010010CD01001007
:10018000CD010010CD010010CD010010CD010010F7
:10019000CD010010CD010010CD010010CD010010E7
:1001A000CD010010CD010010CD010010CD010010D7
:1001B000CD010010CD010010CD010010CD010010C7
:1001C00000BE00BE00BE00BE00BE00BEEFF3058054
:1001D000103800BEF2EB887150D5051078D50510A7
:1001E0003402001090A31AE700201F49086006C8D7
:1001F00081F3088810471D48006800282FD10DA4FE
:100200000ECC002902D000F012F8F9E71849194A7B
:10021000002000E001C19142FCD1174988471749ED
:1002200088471749884700BEFDE701C901C29A42C5
:10023000FBD3704778D50510C0000020A82500200A
:1002400060FA0510000004200000042060FA051088
:10025000001004200010042000000000704709482E
:1002600040F0CCFA0047000008ED00E0000000D0AC
:10027000A8250020A049002049F503103D080010E2
:1002800007F503105756000006005250ABB36053F9
:10029000ACC8051006005250861C0302BCC80510ED
:1002A000060052505422A29DCCC8051005005250A1
:1002B000DE65F46860FA0510F8B5C0460448054BE1
:1002C00010B5834203D0044B002B00D0984710BDDB
:1002D000A8250020A82500200000000006480749A6
:1002E000091A8B10C90FC91810B5491003D0044B57
:1002F000002B00D0984710BDA8250020A82500207D
:100300000000000010B5074C2378002B09D1FFF73F
:10031000D5FF054B002B02D0044800E000BF0123AD
:10032000237010BDB02600200000000050710410A2
:10033000054B10B5002B03D00449054800E000BF71
:10034000FFF7CCFF10BDC04600000000B42600201F
:100350005071041010B504000C22002141F0D4FDAE
:10036000200010BD10B503685B69984710BD10B53B
:1003700003689B69984710BD034B0360034B036000
:10038000034B03607047C04660720410387204105B
:100390001C720410034B0360034B0360034B0360A8
:1003A0007047C04660720410387204101C7204104A
:1003B000044B0360044B0360044B0360044B036075
:1003C0007047C046887204106072041038720410BE
:1003D0001C720410044B0360044B0360044B036065
:1003E000044B03607047C0468872041060720410AA
:1003F000387204101C72041010B5040020290CD0AF
:100400000022084BE358934209D95301E318181D01
:100410009B698B4204D00132F3E7002000E000200A
:1004200010BDC0460410000070B50400114B083325
:1004300003608569002D08D028003AF0F2F9982170
:10044000280041F079FD0023A361E068002803D073
:1004500041F06EFD0023E360074B6362074B63626C
:10046000074B6362074B6362074B2361074B2361B2
:10047000200070BDA872041088720410607204100D
:10048000387204101C72041024C005100872041085
:1004900010B50400FFF7C8FF0249200041F04CFDF1
:1004A000200010BDB412000070B50D4BC458802C54
:1004B00001D8002302E045F0A1FC01339C420CD995
:1004C000C218084DAC46624412788A42F5D1064AF9
:1004D000944663449B00185800E0002070BDC0465D
:1004E000881200000810000022040000F8B5050082
:1004F0000E00002400E001340A4BEB58A3420ED951
:100500006301EB181F1D9B69202BF4D16301EB18CD
:10051000D869310046F072F90028ECD100E00027DC
:100520003800F8BD0410000010B50400094B083372
:100530000360416082600023C360074A0261074A8A
:10054000026143618361C3610362243006F050F8A5
:10055000200010BDA87204100872041024C00510F9
:10056000F8B5CE46474680B5060090469946002429
:1005700003E02B690A571A550134F569AB69A342A8
:10058000F7D8B0693AF040FD00281CD1002404E0FF
:100590002300434400221A700134356AAB69A34238
:1005A00013D92B691857EB68C01A41F0CFF9A96825
:1005B00041F073F9494641F0B7F90028E8D001232A
:1005C00042461355E8E7002000E00120C0BCB946D0
:1005D000B046F8BDC369002B01D098687047014848
:1005E000FCE7C0460000C07F036A002B01D098687A
:1005F00070470148FCE7C0460000C07FC369002B7C
:1006000001D0986970470020FCE7036A002B01D0F5
:10061000986970470020FCE7C369002B01D0D868B7
:1006200070470020FCE7036A002B01D0D8687047B0
:100630000020FCE7704710B50068FFF7FBFF10BD16
:10064000704710B50068FFF7FBFF10BD704710B58D
:100650000088FFF7FBFF10BD10B504000068FFF72E
:10066000E9FF201810BD10B5FFF7F6FF10BD000020
:1006700070B584B004004068FFF7F5FF05006061C5
:10068000FFF7DFFF2E1A3000FFF7E1FF042803D940
:10069000301DFFF7DCFF00E00020002804D0281800
:1006A000FFF7C9FF020000E00022032A08D0200063
:1006B00010300323224903F015FB002004B070BD65
:1006C000A06841F031FCE060002824D0982041F07F
:1006D00027FC050026001036220024320023029356
:1006E0000196A3680093E36861693AF02DF9A5616A
:1006F000002D18D028003AF0A1FB002819D10021C4
:10070000A0693AF04FF9E0610021A0693AF008FAD7
:1007100020620120D2E720001030A268094903F0CE
:10072000E1FA0020CAE70849300003F0DBFA0020B4
:10073000C4E70649300003F0D5FA0020BEE7C04602
:100740005071041098710410C4710410E471041005
:1007500010B582B00024009444F030FB02B010BD0C
:1007600010B582B00024009444F01CFB02B010BD10
:10077000F0B5DE4657464E464546E0B5EDB08446F8
:100780008B4668AD2C4C270043CF43C539682960A0
:1007900064AD103443CC43C52168296000920193B5
:1007A000D200D218012359468B5498460026002EB9
:1007B00039DBB3006A469858731C9B009F58023E71
:1007C000002400E00134032CF1DCA30068AA9A584D
:1007D000121864AD5B59DB19082AF3DC002AF1DD3D
:1007E000082BEFDC002BEDDDD500ED1861464957F5
:1007F0000029E7D059464919894659464D57002DD9
:10080000E0D101218A46D044013549460D70B11C22
:100810008A468900894669464D466A500336B600C5
:1008200073505646CEE740466DB0F0BCBB46B2466C
:10083000A946A046F0BDC046F4730410F0B5B3B0AD
:1008400041F0EAFCBD4802F039FBBD48FFF710FF5C
:10085000002803D1BB4841F0A3FCFEE7BA4841F0B1
:100860009FFCB74C2000FFF7C9FE0100B74B186092
:10087000B74841F0C5FC2000FFF7C7FE0100B54BAB
:100880001860B54841F0BCFC2000FFF7A3FEB34B55
:10089000186041F0BFF802000B00B14841F0B0FC15
:1008A0002000FFF7B9FE0100AE4B1860AE4841F0E2
:1008B000A7FC2000FFF798FEAC4B186041F0AAF8A7
:1008C00002000B00AA4841F09BFC2000FFF7ABFEA2
:1008D0000100A84B1860A84841F092FC192001F0D3
:1008E00005FAD0231B06802292045A629A61A3491A
:1008F000A34844F02BFA0321022001F0C5F903219B
:10090000080001F0C1F900220121022001F0D4F910
:1009100000220121032001F0CFF903A9994B2033D4
:100920000A0031CB31C231CB31C231CB31C21000E0
:1009300000F05EFB011E1BDB3C221100924800F020
:10094000C3FD051E24D0814B1E68300041F0BEFA65
:1009500004008E4B18607F4B186841F0B7FA8C4B3F
:10096000186032000021200041F0CEFA002784E018
:10097000884841F045FCD02424068025AD046561FB
:10098000C82002F09BFAA561C82002F097FAF2E7AE
:10099000814B824A7F2182483EF0B8FD019E19E0DA
:1009A000AB6873431B192A6AD25CB3011B197749E0
:1009B00009686C4800681218CA54AB687343E3189E
:1009C0002A6AD25C774902A83FF0E6FE01343B2C4C
:1009D000E6DD01363B2E01DC019CF8E70A2041F000
:1009E000ABFB02F01FFB6A4B1A68684B19686E4B31
:1009F0005348FFF7B5FD002852DD019E20E06B4A09
:100A00001378013313700134072C18DC604B18681D
:100A1000E3009B19C256002AF1D0654AD356002B39
:100A2000EDD1330022006249FFF7A2FE614B1B7833
:100A30005E4A11789A01604B9B185854DFE70136E3
:100A4000072E01DC019CDFE740220021584841F0DD
:100A50005BFA564B00221A70564A13780133137012
:100A60004A4B1868394B1A68002141F04DFA0A20A8
:100A700041F062FB0A2F17D00137012229000CA890
:100A800000F017FD0190002888D0D024240680268D
:100A9000B6046661FA20400002F010FAA661ECE7A5
:100AA000464841F07DFBDBE7019C00E00134092C66
:100AB0000CDC019B3F2BF9DCA1013F4A5218D25CB0
:100AC0003F49C85C1218CA540133F3E7019C00E0A7
:100AD00001343F2C22DC3A4B185740F037FF39499C
:100AE00040F0C5FE40F096FF06000F00364A374B37
:100AF00040F0A4F90028EBD032003B00344841F02C
:100B00007FFBD02636068027BF047761C82002F01D
:100B1000D5F9B761C82002F0D1F9D9E7254B0022F9
:100B20001A7040320021264841F0EEF9A0229200CE
:100B30000021214841F0E8F9019F9DE7B80B000032
:100B400064310020B8720410D87204108C46002062
:100B5000FC7204109046002010730410844400209E
:100B6000247304108C49002038730410244400209E
:100B7000507304102844002064730410A086010000
:100B8000301D0020F473041059553136D82C002044
:100B9000DC2C00207C7304109473041098730410F0
:100BA000A47304100CBC0510CDCCCC3D9B49002097
:100BB0004C4900209C49002098460020DC7304101A
:100BC0003C440020000020419A9999999999B93F95
:100BD000EC73041070B504000D00012805D0002C42
:100BE00002D1094B9D420AD070BD074B9942F6D104
:100BF0009622920205490648FFF796FCEFE7044863
:100C0000FFF712FCF0E7C046FFFF00003874041045
:100C10006431002010B502490120FFF7DBFF10BD51
:100C2000FFFF000010B50D4B5C68002C11D08C2329
:100C3000E358002B0DD09023E358002B06D09023CF
:100C4000E3588C22A0580832A15898478C230022E0
:100C5000E250034B01221A6310BDC04658310020F8
:100C600000003050054B984206D0054B984201D009
:100C7000002070470120FCE70120FAE75955313682
:100C800059555956094B984209D0094B98420AD0F8
:100C9000084B984201D0002070470220FCE74B42ED
:100CA0005941C8B2F8E70220F6E7C0465955313637
:100CB0005955595652473136012807D0022807D0D6
:100CC000002801D0002070470130FCE70220FAE73D
:100CD0000420F8E7084B984209D0084B984208D006
:100CE000074B984201D0002070470648FCE70648B1
:100CF000FAE70448F8E7C046595531365955595670
:100D0000524731367055051058550510084B98421A
:100D100009D0084B984208D0074B984201D00120D7
:100D200070470220FCE70220FAE70220F8E7C046FD
:100D300059553136595559565247313670B582B0EA
:100D400004006B460A22DA716B4600229A71052371
:100D500003E0642002F0B2F82B005D1E002B1ED0D1
:100D600001236A4607322121A0682668B04701287E
:100D7000EFD101236A4606322121A0686668B04798
:100D8000012808D16B4606331B78762B07D06420E8
:100D900002F094F8E0E7642002F090F8DCE76B469C
:100DA0009879763843425841C0B202B070BD000015
:100DB000F0B5DE4657464E464546E0B583B081461F
:100DC00083689846DD683D4B9D4202D03C4B9D4276
:100DD0000DD13C49280002F031FE4B4618613A49DA
:100DE000280002F02BFE4B46D860002729E0374B45
:100DF000374A3C2137483EF089FB062100F044FF8A
:100E00000134012C06D8534618192C4B9D42F4D0BE
:100E10000721F3E7002300930933320059462800E5
:100E200002F028FE002403E0062100F02DFF01342B
:100E3000082C05D83019214B9D42F5D00721F4E745
:100E40000137032F0FDCBB4643469B699A46434656
:100E5000DE6900230093023352463900280002F075
:100E600009FE0024CDE796235B0080225200EA5061
:100E7000124B9D4209D0124B9D4212D003B0F0BCE0
:100E8000BB46B246A946A046F0BD134B4A461A607F
:100E90001249072000F0D4FF0121072000F0A6FF2F
:100EA000ECE70D4B4A465A600D49092000F0C8FF97
:100EB0000121092000F09AFFE0E7C0460000205021
:100EC00000003050185505102C550510885305109A
:100ED00008550510A453051058310020B10F00101B
:100EE000250C0010F8B506008568EA6813680F2124
:100EF0008B43136080239B01EA681343F0221A603E
:100F00000022032A10DC53009B18DB00D0331900A9
:100F1000EB689C46614480235B010B4380210906FA
:100F2000196019600132ECE7306AFFF7D3FEEB6815
:100F30009C46F768002411E00278417809021143C9
:100F400083781B041943C27812060A433B196100D7
:100F50008A5A18339B0061465A50013403799C42E7
:100F6000EAD3306A00F02EFB0700002410E00134C1
:100F700023014833F318043332692100E86802F092
:100F8000CBFDE9680A680123A3409A4313430B6031
:100F9000A742ECDC33004C33F2680021E86802F031
:100FA000BBFDEA68136801218B430B431360F8BD56
:100FB00010B50D4B1C68002C11D08C23E358002B6E
:100FC0000DD09023E358002B06D09023E3588C22B9
:100FD000A0580832A15898478C230022E250034BB6
:100FE00001221A6310BDC046583100200000205075
:100FF000F0B5C64600B590B004000E00982200215E
:1010000040F082FF33699846706940F09AFC071CF3
:1010100040F0F0FC050040F094FC011C381C40F04E
:101020001CFC8721C90540F038FC40F0E3FCC3B24A
:101030002A000621404600F06FFD4022002168464C
:1010400040F062FF01235B42009301930C220021D8
:10105000200040F059FF6B466360A6601E2001F03F
:101060002DFF3000FFF76AFE00282ED00023032258
:101070000121200000F0E0FB002829D1336A002B79
:1010800001DB00250CE000251CE0336A581902F052
:1010900021FC336A5A192B1D9B00E3185A60013555
:1010A000022DF2DD2000FFF783FE002010B080BC8F
:1010B000B846F0BD012002F019FC2B1D9B00E3187F
:1010C00058600135022DF5DDECE701204042EDE7E7
:1010D00001204042EAE70000F0B5DE4657464E46A2
:1010E0004546E0B595B006000F00924699463C2A69
:1010F00000D023E14B463C2B00D022E18368984688
:101100000800FFF7AFFD0100404600F0C3FA0321DD
:10111000404600F07FFBF56843469C6910220021A1
:1011200008A840F0F1FE80235B020893F8235B02DD
:1011300009938023DB020A93C0231B030A93102226
:1011400008A904A840F0E6FE2A001132059B01938D
:101150007D4B01990B40ED012B4312031343059383
:10116000102204A908A840F0D5FE0B9B0193774BF1
:10117000019A1340E4031C430B940CAC102208A901
:10118000200040F0C7FE33004C3307CC07C3226871
:101190001A60380000F016FA039000247DE06C4BD2
:1011A0006C4AC3216C483EF0B1F96C4B6C4ACF31AC
:1011B00069483EF0ABF9002252183F2A00D9A7E057
:1011C00068491940D3030B43220010329200935117
:1011D000FFF772FD05000422121A23000C339B0056
:1011E000F3185A604B4652465946380000F038FA18
:1011F00029003FF057FB0A34A400305134694346BC
:10120000DB699B461022002108A840F07DFE802368
:101210005B020893F8235B0209938023DB020A93A5
:10122000C0231B030A93102208A904A840F072FEF1
:10123000221D059B0293444B02990B40E4011C4381
:10124000120314430594102204A908A840F062FE7A
:101250000B9B02933D4B029A13405A46D203134311
:101260000B930A9B029340481840A023DB020343E0
:10127000ED05F820400405401D430A9510AC1022EE
:1012800008A9200040F046FE019A1301F3184C33E0
:1012900023CC23C3216819601400039BA3423DDDC6
:1012A000E3B29B4619003800FFF7ECFC231D9B00BE
:1012B000F31859682D4B0C2900D970E72C4D1D40AF
:1012C000CB022B430C218B4304390B4329490B40A0
:1012D00029490B4029490B4001210B4328490B4068
:1012E00002218B43022800D95FE70C22934382003E
:1012F00013431022934310321343621C0192611D69
:10130000204A4546ED68954200D154E7082253E74C
:101310001D4B1E4AB52110483EF0F8F8376253467F
:10132000B3844B46F3843000FFF7DCFD002015B09A
:10133000F0BCBB46B246A946A046F0BD01204042E3
:10134000F5E701204042F2E77F00FEFFFF7FF0FF5C
:10135000D4530510EC540510F453051054540510E3
:10136000C4540510FF7FE0FFFFFF0AFE10801F003E
:10137000FF87FFFF3FF8FFFFFFFFBFFFFFFFDFFF1C
:10138000FFFF7FFF0000205098540510AC5405105B
:10139000F0B5DE4657464E464546E0B583B00500FB
:1013A0000F00924699460CAB1A780DAB1B789B4602
:1013B0008C23C358002B00D075E00968036A8B4268
:1013C0000FD0002A00D171E0FB88BA882800FFF70F
:1013D00083FEAB689846286A00F0F4F80190002478
:1013E0002BE0436A78688342EBD1F2E7231D9B0030
:1013F000EB185E68230008339B00DA59210009319D
:1014000089004346DB689C46614423000C339B0003
:10141000EB185B68C91823000A339B005B59B601BF
:10142000A020C0058446664431607260B36023002A
:1014300010339B005B59F3600134019BA342D5DC60
:10144000BC883868FFF762FC010020003FF002FA18
:101450008C23EF5004335246EA5004334A46EA5094
:101460004346DB68F98801221A6301395A68D203BE
:10147000FCD4196101385A68D203FCD418615B4668
:10148000002B0AD1002003B0F0BCBB46B246A946EF
:10149000A046F0BD012001F011FD8C23EB58002B7C
:1014A000F8D10020EFE702204042ECE70120404263
:1014B000E9E700B583B001230193009200230022E5
:1014C000FFF766FF03B000BDF0B5D6464F4646466F
:1014D000C0B582B08046894692462C2040F0F6FC8A
:1014E000061E44D02C22002140F00EFD43463360FE
:1014F0004B46B3805346F380404600F063F80090BB
:1015000007000024009B0193A74230DDE5B24A4664
:101510002900404600F094F8A31C9B00F05053466D
:101520004A462900404600F09BF8231D9B00F31813
:10153000586040F0CBFC0500230008339B00985115
:1015400000280ED00134DDE70134019BA3420ADDFF
:10155000230008339B0098590028F5D040F0C8FCC0
:10156000F2E70024F1E7300040F0C2FC2E0030002A
:1015700002B0E0BCBA46B146A846F0BD70B584B032
:1015800004006B46DA1D1170012321218068256853
:10159000A84766680F256D44A06801232A00212111
:1015A000B047287804B070BD10B582B00468806878
:1015B0006B4619715A71022301AA2121A04702B07A
:1015C00010BD0000084B984209D0084B984208D043
:1015D000074B984201D0002070470120FCE7032010
:1015E000FAE70120F8E7C0465955313659555956A2
:1015F00052473136084B984209D0084B984208D0E0
:10160000074B984201D0002070470220FCE70120E0
:10161000FAE70220F8E7C046595531365955595670
:1016200052473136054B984201D0012070470029BE
:1016300001D10120FAE70220F8E7C04659553136BA
:1016400070B504000D001600FFF7D4FF46432900D3
:101650002000FFF7E7FF010030003FF0FBF870BD0E
:1016600010B51C00FFF7ECFF604310BD70B506001D
:101670000D00002407E052783000FFF795FF0120AD
:1016800001F01CFC01346300EA18E95CC929F2D9B5
:1016900070BD000010B5002904D10449FFF7E6FF32
:1016A000002010BD0249FFF7E1FFF9E7445605109D
:1016B0004C560510F8B5DE4657464E464546E0B551
:1016C00004000D00160099460AAB1B789A460BAB36
:1016D0001B789846002900D190E00422042D00D107
:1016E0008EE00C212000FFF75FFF002D00D18BE082
:1016F0002A001832D2B23E212000FFF755FF2B1CE2
:10170000032D00D903231A01D218D2B2722120006E
:10171000FFF74AFF002D00D178E02A00103AD2B23C
:1017200073212000FFF740FF042D00D170E0202539
:1017300070212000FFF722FF070071212000FFF732
:101740001DFF7F239F437AB22A43D2B2984340B20F
:101750000543EDB270212000FFF726FF2A0071211A
:101760002000FFF721FF3700E137FF37A02080007E
:101770004844C42189003FF06DF80D008BB29B46B0
:101780004B46DA08D2B217212000FFF70DFF5B4667
:10179000DA08D2B218212000FFF706FF53469B015A
:1017A0002D046D0B38222A401A4352B207234946B2
:1017B0000B401A43D2B232212000FFF7F5FEB208E7
:1017C00019212000FFF7F0FEBA081A212000FFF7C8
:1017D000EBFEBF000C223A4003273E403243032178
:1017E0002000FFF7E1FE4246A2212000FFF7DCFEC9
:1017F000F0BCBB46B246A946A046F8BD0A006DE75C
:1018000008231A43D2B26CE72A0074E7082287E75C
:101810003C358DE730B583B0064A8D0054196378A6
:10182000AA5CE5780195A4780094FFF743FF03B024
:1018300030BDC04654560510F0B5C64600B504008C
:101840000E0090469620400001F038FB636818684F
:1018500000283BDA6368586800284ADB00F046FA43
:1018600063685B6801273A009A40D0252D066A62BA
:1018700063685B683A009A40AA61012001F01EFB90
:1018800063685B689F406F61FA20800001F016FB7F
:1018900001221121A068FFF787FE40226B21A0687A
:1018A000FFF782FE3100A068FFF7F4FE1449A0683C
:1018B000FFF7DCFEA0684146FFF7ACFF9620400032
:1018C00001F0FCFA002080BCB846F0BD00F00EFA32
:1018D00063681A68012319009140D02212065162F0
:1018E000616809688B4093619620400001F0E6FA38
:1018F000B0E780221221A068FFF756FEC4E7C04679
:1019000088550510F8B5DE4657464E464546E0B5C3
:1019100005000F0092460A9A934250D31A0E914640
:101920001E020A9A0023300049463EF0F9FF804625
:101930006C006419A400304B9C4664446368834285
:1019400000D260602B1FDBB29B46012B3DD9C02328
:101950009B012343802212011A60AB00274A995849
:10196000002907D050693EF09DFF431C5800C01865
:101970000338FDD253465A0123685A40E0231A40E7
:1019800080235B0123431A605A46012A28D9802309
:101990009B012343802212011A6043466360424642
:1019A0000023300049463EF0BBFFAD00134B5851B9
:1019B0000120F0BCBB46B246A946A046F8BD104B7C
:1019C000104A332110483DF0A1FD012FBFD1C023A3
:1019D0009B01234303221A60A368DB07FCD5C9E7F8
:1019E0002168794003220A401A60A2680123BB40A3
:1019F0001342FAD0CBE7C04600800040B02C002054
:101A000068560510D05605107C56051030B583B0C9
:101A10000C2001F0D7FE00F0A7F800280DD000231D
:101A200004E099002D4A2E4888500133092BF8D93B
:101A30002A4B2C4A5A6203B030BD2B4B00229A67C6
:101A400001F032FF294B01221A60274B5B6C012BFE
:101A5000FBD1274B03221A60234B9B6B012BFBD13D
:101A6000013300930433234A0121234801F01AFE75
:101A700005230093214A0121214801F013FE214B47
:101A80000093002202210420FFF73CFF1E4D009529
:101A90002B00002201210520FFF734FF104C009499
:101AA0002300002200210720FFF72CFF00942300D1
:101AB000002200210820FFF725FF0A4B0093230096
:101AC000002200210920FFF71DFF00952B000022B6
:101AD00000210620FFF716FFADE7C046B02C00201E
:101AE000006CDC021BB70000008000403CB00040EE
:101AF00030B00040002F685900800240008C8647BB
:101B000000C00240001BB700405973078000014B22
:101B1000C0587047B02C0020F8B5152807D01728FA
:101B200019D0182819D0192819D0002600E000264D
:101B30004C0180252D012C4371008D19AD00094FFA
:101B4000EC51120213432900BC4661444B6008214A
:101B500000F09AF8F8BD0126EAE70226E8E7032636
:101B6000E6E7C04600800040034B1B680220184097
:101B7000431E9841C0B2704700C00640EFF310808A
:101B800072B6034B1B68002BFBD0BFF35F8F70470F
:101B90002C0100D0BFF35F8F024B00221A6080F34C
:101BA000108870472C0100D0F8B506000C00150015
:101BB000FFF7E4FFE308F718F15C07222240012356
:101BC00093400B4205D1DBB20B433B70FFF7E2FFC2
:101BD000F8BD210028003DF033FDF0B583B00600CC
:101BE000019114001F00FFF7C9FF00E00134BC425F
:101BF0000CD8E308F518F35C0721214001228A4044
:101C00001A42F3D1D2B21A432A7001E0012464428D
:101C1000FFF7C0FF002C02DB200003B0F0BD019BEA
:101C2000002BF9D008983DF00BFD0000002307E0E1
:101C3000054A9A189200BFF35F8F002111600133AB
:101C40001F2BF5D97047C04640000034054A107874
:101C5000431CDBB21370172B02D9130010221A7029
:101C60007047C046181C002000B583B00100044B2B
:101C700000931F2318220348FFF7AFFF03B000BDF6
:101C8000E0560510AC2C002010B58300084A94469D
:101C900063441C6840226240C024144080225201E8
:101CA00013431C60C000034B9C466044416010BD60
:101CB00004C001400040014080000B4B9C46604442
:101CC00000290DD00823002A0CD0042213430268F7
:101CD00053400C221340802252011043036070478E
:101CE0000023F0E70022F1E704C0014010B5012312
:101CF0008340D0221206936293610521FFF7C4FF4F
:101D000010BD0000074B9B68103080001950BFF3D6
:101D10005F8FBFF35F8F044B0021196082F310883F
:101D20007047C04600ED00E0240100D010B5091A4C
:101D3000081F0A4B9C466144094A914208D8C307D0
:101D400006D440104005400D064B184380B210BD2C
:101D5000054B064AA32106483DF0D8FBFC070000CE
:101D6000FE0F000000E0FFFFFC560510785905103B
:101D70002C57051010B5091A04394C08090B08D165
:101D80004905490D064A11430180064B2343438010
:101D900010BD054B054AAB2105483DF0B7FBC046D9
:101DA00000F0FFFF00F8FFFF785705104C590510B1
:101DB0002C57051001238340034A10681840431E26
:101DC0009841C0B27047C04600E100E0002904D04D
:101DD000034B1860034B18607047034B1860FBE718
:101DE00080E200E000E100E080E100E010B50123C6
:101DF00083401800FFF7EAFF10BD00000123834075
:101E0000014A13607047C04600E200E0024B9B6845
:101E100010308000C058704700ED00E010B5FFF7AB
:101E2000F5FF002805D0054BC01A2F2803D8012044
:101E300010BD0020FCE70020FAE7C0461C1C002073
:101E400070B504000D00EFF3108672B60C4B1B68E2
:101E5000002BFBD0BFF35F8F2000FFF7D7FF094BAC
:101E6000984201D0A84205D1320029002000FFF796
:101E700049FF70BD044B054A862105483DF046FBED
:101E8000240100D0CD01001088570510AC59051071
:101E90002C570510F0B5DE4657464E464546E0B590
:101EA00089B0814601911500EFF3108A72B6744B28
:101EB0001B68002BFBD0BFF35F8F724B0027DF57EF
:101EC000002F40DB7C00E419A4006F482418062290
:101ED000A2566C4B1A706D4B9A684B4610339B00A0
:101EE000D35898461E001B1A2F2B38D9684B98459B
:101EF0002FD105AE674B33807B009B46D8198000FD
:101F0000614B9846404402306349FFF70FFF7080F1
:101F1000624BB380FF23B371F571019B07935F445C
:101F2000BF0047440ECE0EC701231C43A0465246B5
:101F300041464846FFF7E6FE09B0F0BCBB46B24654
:101F4000A946A046F0BD564B564AD72156483DF00B
:101F5000DDFA564B534ADE2153483DF0D7FAC043D1
:101F600040440C213EF09EFC002912D101239E43E7
:101F7000B34633000026DA79AA4211D90621595610
:101F800000290CDB4A00521892001E003E4B9B18A1
:101F9000F1E7474B434AEA2143483DF0B7FA1E00B8
:101FA000002E3AD005AB434A1A80813A5A80062364
:101FB000F3560293002B17DA3F4805AB9B469880F7
:101FC000029A9A71DD71019A0792301D2100FFF784
:101FD000ADFEB080B7717B00DB199B002A4FFF1864
:101FE0005B4607CB07C7A2E77800C0198000264BE5
:101FF000C0180430321DB388D90A1C2907D15B05EB
:102000005915023149005118FFF790FED5E72B4BC7
:102010002B4AB12124483DF079FA05AE1D4B33809F
:102020007B000293D8198000174A90460200424470
:102030000392901C1849FFF779FE7080039A101DD7
:102040005946FFF773FEB0801E4B5A464146521A5E
:10205000524153431B0DB371F571019A0792029BD4
:102060009C466744BF0047440ECE0EC7114B5A46EC
:102070001380813B538001231C43A04657E7C04691
:10208000240100D0974900201C1C002000ED00E036
:10209000CD01001000A1FFFF4C1C002001BDFFFF7F
:1020A000C0570510945905102C570510E857051016
:1020B000105805100148000001BD000084580510AB
:1020C00084590510AAAA0000F0B5CE46474680B54F
:1020D00083B006000D00EFF3108872B6564B1B68F4
:1020E000002BFBD0BFF35F8F544B9A683400103441
:1020F000A300D758524B9F4207D0AF4200D198E07F
:102100000197504BFB1A2F2B09D94246390030005A
:10211000FFF7F8FD03B0C0BCB946B046F0BD3000D3
:10212000FFF748FE814600213000FFF75FFEBFF356
:102130005F8FEFF30581002901D08C4211D101237B
:10214000019C9C430022A368AB4212D00622A256F7
:10215000002A0DDB53009B189B002200394CE41829
:10216000F1E73621384B394AFF3139483DF0CEF995
:102170002200AB4256D106256557002D38DB6B0097
:102180005B199A002F4B9B189A68A260DA79E2716A
:1021900006229A56A2719B795BB2002B0FDA2D486A
:1021A000A0806B005B199B00264AD3182A4A11783D
:1021B0009971157049463000FFF718FEA5E7201DFC
:1021C0006B005B199B001F4A9B181A1D9B88D90A3C
:1021D0001C2907D15B055B15023359005118FFF725
:1021E000A5FDDDE71D4B1E4AB12119483DF08EF9D2
:1021F000002912D1002A0ED0FF239371194B93802E
:10220000154A1378A371184B0E49641A644163434D
:102210001B0D1370CEE70A4FF2E7201D1349FFF79D
:10222000A9FDC7E76A21124B084AFF3108483DF073
:102230006DF9034F69E7C046240100D000ED00E0CE
:10224000CD0100101C1C00209C580510645905107D
:102250002C57051001BD0000974900208458051037
:102260008459051001BDFFFFAAAA0000561C0020DA
:10227000D058051070B5012101432E4BCB1A2F2BDE
:1022800028D8EFF30583002B2BD0EFF3108C72B618
:10229000294A1268002AFBD0BFF35F8F274A040047
:1022A000244D641B64416243120D54B2244A926867
:1022B0009B00D2588A421BD00022032A32D85300F6
:1022C0009B189B001B49CB189B795BB2A3421FD084
:1022D0000132F2E7C7211B4B1B4A49001B483DF066
:1022E00015F992211A4B184AFF3118483DF00EF9A2
:1022F000134A92681749D150174B1A7882711C7093
:10230000BFF35F8F0C4B00221A608CF3108870BDF6
:102310000D005300991889006918FF268E710F4A25
:102320008A80E9E7D1210E4B074A490007483DF072
:10233000EDF8C0461C1C0020240100D0AAAA000011
:1023400000ED00E0D8580510305905102C57051045
:1023500000590510CD0100109749002001BDFFFF75
:102360000C5905100022044B02E0044902C301325B
:10237000072AFAD97047C04600E400E080808080D8
:1023800000B583B00100064B0093052300220548E9
:10239000FFF723FC002801DB1F23181A03B000BD40
:1023A000145905109E490020024B9C466144890047
:1023B000016070474000003410B50400FFF746FC90
:1023C00001002000FFF7F0FFFF232371BFF35F8FB1
:1023D00010BD10B50400FFF739FC01002000FFF725
:1023E000E3FFFF23237100236371BFF35F8F10BDF1
:1023F000034B9C46614489000160BFF35F8F7047C7
:102400004000003410B504000120FFF72DFC01004E
:102410002000FFF7EDFF10BD70B505000C000800AF
:1024200000F000FF0949200000F040FEFFF70EFC1D
:10243000074B9C466044800068602C75D0231B06C7
:102440001B786B75A400034BE55070BD5D27001031
:10245000400000342C4400200A4B1A68EFF310812E
:1024600072B61368002BFCD0BFF35F8F054B1B685F
:10247000BFF35F8F00221A6081F3108840BF0020F5
:10248000002170479446002010B5002922D003682F
:102490001B7B99421ED8174B9C46614409018368F7
:1024A0009C4661440C684968002A19D003681B7B6C
:1024B0009A4215D883680F488446624412019A18DC
:1024C00010685368020001208B4201D80ED0002012
:1024D000C0B210BD084B094A3C2109483DF016F82E
:1024E000054B064A3C2106483DF010F8A242EFD8C1
:1024F000EDE7C046FFFFFF0F6C5B0510E05D0510C8
:10250000245B051010B500291ED0037B99421BD80F
:102510004B005B18033B0468A4466344002919D0B0
:10252000002A1DD0914221D0002A25D0047BA2424E
:1025300022D8046850008018033820188170197858
:1025400000291FD11A7010BD104B114A6821114883
:102550003CF0DCFF104B114A6F310E483CF0D6FFC7
:102560000F4B0E4A70210B483CF0D0FF0D4B0B4A2D
:10257000712108483CF0CAFF044B054A6821054810
:102580003CF0C4FF41701A70DDE7C046905B051057
:102590004C5E0510AC5B0510085C0510285E05104C
:1025A000145C0510205C051070B506000D001400C9
:1025B000002914D0002A14D0806873689847002836
:1025C00006D0220029003000FFF79CFF280007E01A
:1025D0002A0021003000FFF795FF200000E01000E6
:1025E00070BD0800FCE70000F0B583B00500009264
:1025F00001930AAB1C780BAB1F78002C26D0036824
:102600005A7B944207D10123002B19D1002C3BD1D6
:10261000200003B0F0BD002C0CD01A7B944209D8E6
:102620001A6863001B19033BD3189B78002BEBD06F
:102630000123E9E73E4B3F4A68213F483CF066FFF3
:102640003E4B3F4A67213F483CF060FF03689C7B5C
:10265000002CDBD012D01A7B94420FD862001219E2
:10266000033A19688C46624451789973002900D165
:10267000D9730023937053701370C7E72C4B2D4A06
:1026800068212D483CF042FF002C3AD02B681B7B80
:102690009C4236D82C4BE3181B01AA68944663442D
:1026A000009A1A60019A5A60089A9A60099ADA6048
:1026B0002E68002C2BD030D0337B9C422DD8630069
:1026C0001B19033B32689446634400229A705A7087
:1026D0001A70717B22003000FFF766FF707384422E
:1026E00000D095E7287D009A019B00F027FD061E8B
:1026F00001D0002F17D00C9B002B00D188E71E7053
:1027000086E7124B124A3C210E483CF0FFFE114B6B
:10271000114AA52108483CF0F9FE054B054A6821FD
:1027200005483CF0F3FE2868210000F03FFFE2E797
:10273000905B05104C5E0510AC5B0510385C051015
:10274000585E0510245B0510FFFFFF0F6C5B051042
:10275000E05D0510205B05103C5E0510F0B5DE461F
:1027600057464E464546E0B58BB009900023089386
:102770008200B54BD658370052E0B44BB44A3F21E3
:10278000B4483CF0C3FEB44BB44A3C21B4483CF0DE
:10279000BDFE002901D1002869D10021404600F08A
:1027A000FBFEA04219D12A686B6806920793AB68BA
:1027B0009846EB689A464346002B14D0002C18D05C
:1027C0003B681B7B9C4214D8631EFA68D35C089359
:1027D0001B0218433861002015E0A24BA24A8E214B
:1027E0009F483CF093FEA14B9F4A92219C483CF0AD
:1027F0008DFE994B9E4A412199483CF087FE00236B
:102800009A46984600207B68BFF35F8F00221A60CB
:1028100086F310884346002B32D1002800D10CE10A
:1028200000F000FC02000B1EA7DB00200021069038
:1028300007917868EFF3108672B601680029FCD022
:10284000BFF35F8F396888464C7B002CD7D09AD075
:10285000097B8C4297D8874965182D01B9688C4649
:10286000654428686968801A9941002991DD2A68C1
:102870006B68099800F062FC00239A469846C2E70C
:10288000089B1B022343994651461800C047050088
:102890000E007A68EFF3108B72B6136859424B4101
:1028A000D9B2002BF9D1BFF35F8F002E1EDB002EB3
:1028B00046DD3B69002B47D04B456DD100F0B2FBA4
:1028C00002000B1E6EDB52197341002B70DB002BD4
:1028D00072DB002104910131039102945146019170
:1028E000414600913800FFF77FFE4CE03B69002B2A
:1028F000DDD04B4514D1069A079B521BB341002BE8
:1029000014DB002B16DB00210491013103910294AA
:1029100051460191414600913800FFF765FE32E0D3
:10292000554B514AA1214E483CF0F0FD0122524244
:10293000524BE6E7454B464A3F2146483CF0E6FD10
:10294000002E01D1002DB4D13B68002C50D05A7B11
:10295000944237D1012100294AD1DA7B002A4DD196
:102960009A7B002A03D1DA7B002A5AD19C73DC734C
:10297000002C5CD03B681B7B9C4258D8FA68013C19
:10298000135D0133135500233B617A68BFF35F8FFA
:1029900013608BF3108843E7374B334AA421304848
:1029A0003CF0B4FD294B2A4A3F212A483CF0AEFDB9
:1029B00001225242314B8AE7244B254A3F212548C8
:1029C0003CF0A4FD002C0DD01A7B94420AD8620082
:1029D0001219033A1868844662449278002ABAD0E1
:1029E0000121B8E7264B274A682127483CF08EFD95
:1029F000264B274AF62124483CF088FD002A0AD0BD
:102A0000197B8A4207D851008A18033A19688C4604
:102A100062445470A4E71A4B1A4A68211A483CF0E1
:102A200075FD1C4B1A4AFB2117483CF06FFD0A4B01
:102A30000F4A41210A483CF069FD0BB0F0BCBB468F
:102A4000B246A946A046F0BD2C4400202C5A0510E1
:102A5000AC5D0510485A05106C5B0510E05D051073
:102A6000245B0510605C0510C45D0510785C0510E2
:102A7000045E0510FFFFFF0F845C0510FFFFFF7F62
:102A8000905B05104C5E0510AC5B0510C05C05103A
:102A9000185E0510E45C051010B50C4B5B68002B4C
:102AA00004D00A210A48FFF77FFC10BD074C230021
:102AB000084A1021206800F07FFC032000F0A6FAED
:102AC00003212000FFF7A8FCEBE7C046641C0020B0
:102AD000944600208924001010B5064B5B68002B3B
:102AE00001D0044810BD044B044A5E2104483CF068
:102AF0000DFDC046641C0020F85C0510EC5D05105F
:102B0000245B0510F0B5DE4657464E464546E0B517
:102B10008BB0804616001F00149B9A46159B994661
:102B200016AB1B789B461F2302AA944663440022DF
:102B30001A702BE0002809D042461268127B90429E
:102B400004D8421E4146C9688A5C41E0404B414A74
:102B5000412141483CF0DAFC07984CE0361BAF417C
:102B6000002F07DB002F11DA3C4B3D4A3F213D4847
:102B70003CF0CCFC012676423B4FF3E7374B384A1A
:102B80003F2138483CF0C2FC002F4FDB43465A68D7
:102B9000EFF3108472B6136859424B41D9B20791D2
:102BA000002BF8D1BFF35F8F1F3302AA9446634412
:102BB00004930023039302934B46019353460093DF
:102BC00032003B004046FFF70FFD031EB2D102006A
:102BD00041464968BFF35F8F00250D6084F310887C
:102BE000002B29D01F2302A98C4663441B78002B9D
:102BF000B2D112021043002B20D05B46002B1DD017
:102C00004946D04704000D0003000B431DD00029A6
:102C1000A4DB00F007FA06000F1EAFDB36196F4188
:102C2000002FB1DA012676420F4FADE70B4B0C4A6D
:102C30003F210C483CF06AFC012040420BB0F0BC44
:102C4000BB46B246A946A046F0BD0798F6E7C04687
:102C50006C5B0510045E0510245B05102C5A0510F2
:102C6000AC5D0510485A0510FFFFFF7FF8B5040062
:102C7000002900D162E04268EFF3108572B6136854
:102C800058424341D8B2002BF9D1BFF35F8FCBB28A
:102C90002268567BB3421BD10120002848D020690E
:102CA00088422BD0090AC9B2002B2ED02068007BA5
:102CB00083422AD8581EE668305C88422BD0002018
:102CC0006368BFF35F8F00221A6085F31088F8BD38
:102CD000002B0DD0167BB3420AD85E00F618033ED7
:102CE0001768BC466644B678002ED6D00120D4E7DB
:102CF000134B144A682114483CF008FC2C21134B58
:102D0000134AFF3113483CF001FC134B134A412195
:102D100010483CF0FBFB1900100000F047FC0028B5
:102D2000CED199210E4B0A4A49000A483CF0EEFBED
:102D300023698B42C4D100232361C1E70020C6E789
:102D4000905B05104C5E0510AC5B05101C5D05101A
:102D5000945D0510245B05106C5B0510045E051086
:102D6000405D0510407D7047F0B587B006000F004C
:102D7000EFF30583002B1FD106246442E517A41945
:102D80007D418D4202D803D1844201D9002400251F
:102D9000002D14DB0494059500F044F902000B1E8D
:102DA00013DBA41A9D41002D17DC14D0300039002C
:102DB00000F044F907B0F0BD23483CF041FC234B40
:102DC000234A3F2123483CF0A1FB204B204A3F21CE
:102DD00020483CF09BFB002CE8D0FFF77DFE002351
:102DE000029301931C4B0093049A059BFFF78AFE04
:102DF000002818DADAE7002300E00023002BD5D101
:102E0000164B1A68EFF3108172B61368002BFCD0D2
:102E1000BFF35F8F114B1B68BFF35F8F00221A60F7
:102E200081F3108820BF0499059A0D4B5B6A9A4282
:102E3000E3D80B48806A884203D29A42DBD0012350
:102E4000DCE70123DAE7C046445D05102C5A051083
:102E5000AC5D0510485A0510592400109446002016
:102E60000040054070B504000D0000F0DBF80200E2
:102E70000B1E0ADB200029008018594100290ADBBB
:102E800000290CDBFFF770FF70BD084B084A3F219B
:102E900008483CF03BFB012040420749F0E7034B68
:102EA000034A3F2103483CF031FBC0462C5A051031
:102EB000AC5D0510485A0510FFFFFF7F10B5FA22E0
:102EC0009200002300213EF0ABFCFFF7CBFF10BDCA
:102ED00070B584B005000C00EFF30583002B1ED104
:102EE000FFF7FAFD002302930193224B00932A007F
:102EF0002300FFF707FE061E23DD20BFFFF7ECFDD2
:102F00003100FFF7B3FE1C4B5B6A9C422DD81A4A76
:102F1000926AAA422CD29C4225D0012026E0164B70
:102F20005B6A994209D8144A926A824207D299424E
:102F300001D001201AE0002018E0002016E0012056
:102F400014E00D4B5B6A9C4209D80B4A926AAA4274
:102F500007D29C4201D0012008E0002006E00020BA
:102F600004E0012002E0002000E0002004B070BD79
:102F70000120FBE7592400100040054070B5EFF335
:102F800005801038EFF3108C72B61A4B1B68002BBB
:102F9000FBD0BFF35F8F01221300834016494B63C0
:102FA00016490B60164909780C00C440224214D01F
:102FB000114A546A8200134D5259944206D382003A
:102FC000114C125999430E4B197007E00A4A031D20
:102FD0009B0099589950002200E00022BFF35F8FB8
:102FE000044B002119608CF31088002A00D0904710
:102FF00070BDC046280100D0004005403C7005402F
:103000009D490020204900208C2B002010B5010094
:10301000024A0348FEF7C8FD10BDC046705E0510A9
:1030200096490020044B5B6A034A906A1900536A70
:103030009942F9D17047C04600400540084B5B6A91
:1030400001E0074B5B6A8B42FBD301E0044B5B6AF8
:103050008B4203D1024B9B6A8342F7D37047C04631
:103060000040054070B504000D00FFF7DBFF0200D3
:103070000B0020002900801859418B4202D804D14E
:10308000824202D901204042C117002902DBFFF72A
:10309000D5FF70BD024B034A3F2103483CF036FA8E
:1030A0002C5A0510245F0510485A051070B504000D
:1030B0000D00EFF3108672B61B4B1B68002BFBD084
:1030C000BFF35F8F002D1CD02000FEF79FFE174B33
:1030D00083420BD019002000FEF7B2FE0121200030
:1030E000FEF784FE0123A340114A1360A400114B94
:1030F000E550BFF35F8F0C4B00221A6086F31088F7
:1031000070BDA2000B4B0021D1500122A2400A4900
:103110000B7893430B7005492000FEF7D5FF002183
:103120002000FEF763FEE4E7280100D07D2F0010A9
:10313000386005408C2B00209D490020F0B5DE460C
:1031400000B584B00400150001921E000293FFF741
:1031500069FF03958E4202D84ED185424CD9EFF3D8
:10316000108B72B6274B1B68002BFBD0BFF35F8F11
:10317000254A17780125A540EBB23B431370234B3A
:103180005D63221D92000199D150A200204902984E
:1031900050501B6A2B4212D11C4B1B6C2B4208D087
:1031A0000020BFF35F8F174B00221A608BF310884B
:1031B00023E0184B184AC52118483CF0A7F9FFF73F
:1031C00031FF8E4214D802D1039B834210D80E4B9C
:1031D0001B78BB420ED00D4B1D625D631F20044067
:1031E0000123A3400E4A1360074B1F701E38D8E717
:1031F0000020D6E70120D4E7012004B080BCBB4604
:10320000F0BDC046280100D09D4900200040054087
:1032100020490020945E0510085F0510B85E051077
:1032200080E200E0EFF3108C72B60B4B1B68002BB2
:10323000FBD0BFF35F8F01238340084A1362084924
:103240000A789A430A70BFF35F8F034B00221A601B
:103250008CF310887047C046280100D0004005401C
:103260009D49002010B500291ED0037B99421BD830
:103270004B005B18033B0468A4466344002919D043
:10328000002A1DD0914221D0002A25D0047BA242E1
:1032900022D80468500080180338201881701978EB
:1032A00000291FD11A7010BD104B114A6821114816
:1032B0003CF02CF9104B114A6F310E483CF026F9C6
:1032C0000F4B0E4A70210B483CF020F90D4B0B4A76
:1032D000712108483CF01AF9044B054A6821054859
:1032E0003CF014F941701A70DDE7C046905B0510A0
:1032F00038600510AC5B0510085C051024600510F3
:10330000145C0510205C051070B506000D0014005B
:10331000002914D0002A14D08068736898470028C8
:1033200006D0220029003000FFF79CFF280007E0AC
:103330002A0021003000FFF795FF200000E0100078
:1033400070BD0800FCE7000010B500234373013393
:103350008373037BC3730123027B9A4214D9002B2E
:103360000CD0027B934209D85A00D218033A016864
:103370008C4662440133DBB25370EDE70B4B0C4AD1
:1033800068210C483CF0C2F8002A09D0924207D8C4
:10339000016853009A18033A8A180023537010BD2D
:1033A000024B034A682103483CF0B0F8905B0510DB
:1033B00038600510AC5B051010B501734260836086
:1033C000FFF7C2FF10BD000070B50400081E00D159
:1033D00070BD002934D0237B994231D84B005B1853
:1033E000033B2268944663445A78002AF0D02DD0DB
:1033F000237B9A422AD853009B18033B21688C46B2
:1034000063445D7800215970002825D0237B9842C1
:1034100022D843001B18033B21688C4663440021DB
:10342000597001002000FFF76FFF060029002000FF
:10343000FFF7CAFF020031002000FFF765FFC7E772
:10344000084B094A682109483CF060F8054B064AD8
:10345000682106483CF05AF8024B034A68210348A9
:103460003CF054F8905B051038600510AC5B05101B
:1034700070B505000C00160000292FD034D0037B56
:10348000994231D84B005B18033B02689446634471
:103490005A78002A2ED19A78002A31D11978FFF76C
:1034A00093FF0300002E0AD0EA7B002A2ED1AA7BCC
:1034B000002A03D1EA7B002A3BD1AC73EC73002BCA
:1034C0003DD1002C4FD02B7B9C424CD82B68610007
:1034D0000C19033C1C190023637070BD254B264A50
:1034E000382126483CF012F8254B264A6821264808
:1034F0003CF00CF8254B204A3A2120483CF006F8D5
:10350000234B1D4A3B211D483CF000F8002A0AD0FD
:10351000297B8A4207D851008A18033A29688C46C9
:1035200062445470C3E7164B164A682116483BF0B4
:10353000EDFF184B104A422110483BF0E7FF002BEB
:103540000BD02A7B934208D843001B18033B2A6800
:103550009446634400229A70B3E7094B094A6821F4
:1035600009483BF0D3FF064B064A682106483BF06A
:10357000CDFFC0463C5F051010600510445F05108C
:10358000905B051038600510AC5B05108C5F051072
:10359000B45F0510E45C051070B504000A00457BBB
:1035A0002900FFF765FF6073280070BD70B5040047
:1035B000002967D0437B8B420ED0002911D0037BBA
:1035C00099420ED84B005B18033B0268D0188378F1
:1035D000002B0CD1002056E00121FFF7DDFF012078
:1035E00051E0294B294A682129483BF08FFF002BE5
:1035F00020D0227B93421DD85A00D318033B226867
:10360000D2182568EB5C8B421AD0002B1BD0227B92
:10361000934218D85A00D318033B2268D218537823
:103620008B4216D0002BF0D11A4B1B4A6B211B4842
:103630003BF06CFF144B154A682115483BF066FFC0
:103640004378137007E0104B104A682110483BF094
:103650005DFF437853700023837043700122200084
:10366000FFF706FF0200617B814205D02000FFF7D3
:103670004BFE6073012006E0094B074A71210748A1
:103680003BF044FF002070BD905B051038600510D2
:10369000AC5B05100C590510F85F0510445F051070
:1036A000D85F0510F0B5C64600B504000E0017003F
:1036B0001D0037483DF0F6F88046364BFA18364B79
:1036C0009A4239D8010038003DF0ECF80200103A77
:1036D00098235B009A4235D86B1E062B38D8069B80
:1036E000013B062B34D83F09474537D32D04069BB1
:1036F0001A0315432368002B36DB284B9C4244D029
:1037000080225201264B1A60264B1A60264B9B687A
:1037100011009943FAD12660A060231DC0229201B6
:103720001A43212313602368002BFCDAE560082389
:10373000136080BCB846F0BD1C4B1D4A11211D48CA
:103740003BF0E4FE1C4B1A4A19211A483BF0DEFEFE
:103750001A4B174A1C2117483BF0D8FE184B144A45
:10376000232114483BF0D2FE22683F231340B3428A
:10377000C3D1A3681B051B0D8342BED1E368EE22B3
:10378000D2021340AB42B8D1D3E780229201B9E70D
:10379000001BB70080E84BD380F8A93200C002407C
:1037A00000E0004000F0004000C000404460051010
:1037B00074610510A4600510F06005100C6105101F
:1037C0005861051080239B000343014AD362704770
:1037D00000800540024B1A68024B5A607047C04691
:1037E000603100200080054010B50200164B80209B
:1037F000C0051860154B1648186000290AD0154BF3
:10380000E021C9041960002A09D1124B8022120656
:103810001A6010BD0C4BE021C9041960F3E7530195
:103820009B1A9800801800010B4B186080235B04E2
:10383000984202D3084B094A1A60FFF7CBFF054BA9
:103840008022D2051A60E4E700B00540082001405C
:10385000FCFF010000A0054060310020FFFFFF00D9
:1038600010B5030010000C4A8024E4051460002BFE
:103870000DD001221343094A094CD461094C5C4024
:103880001462516293620021FFF7AEFF10BD034B3B
:103890000022DA61F7E7C04600B00540008005402D
:1038A000D3C007B02D3FF84F074BAA2212011A6070
:1038B000BC22D200DA60054B054A1A60024B5B68F5
:1038C000002BFBDA7047C046004002400060024017
:1038D00000B0FA0010B50100024A0348FEF764F98F
:1038E00010BDC046806105109049002000B583B02E
:1038F0000100044B00930B2300220348FEF76DF9EF
:1039000003B000BDA4610510904900200523CB56EB
:10391000002B01DB934211D1094B9C46604443428A
:1039200058418000074BC058097901238B40013B67
:103930009340184043425841C0B270470020FCE712
:103940000000D0AF842B002070B50A79202A19D846
:10395000174B9C466044434258418000154BC45865
:1039600001239340013B497949B2002910DB08004B
:103970002025AA1A914218DC8B401C4201D001205C
:10398000404270BD0C4B0D4A40210D483BF0BEFD3E
:103990002020801A002805DB1A0082401442F0D053
:1039A0000138F7E701204042EBE701204042E8E719
:1039B0000000D0AF842B0020C461051050620510B8
:1039C000F061051070B505000C001600FFF79EFFB2
:1039D000002801D0002007E015483BF031FE831994
:1039E00012339B005A510130237983420FD9237837
:1039F000617809021943A27812041143E3781B0687
:103A00000B4342009A5A530BE9D19219E7E701227E
:103A10009A401300013B074A944665446A42554167
:103A2000B340054AAD00A9580B43AB5070BDC0462A
:103A30003C6205100000D0AF842B0020F8B50500D3
:103A40000E00FEF79BF8070031002800FFF77CFF0F
:103A5000041E09DB020031002800FFF7B3FF380025
:103A6000FEF798F82000F8BD01483BF0E9FDC0469C
:103A70003C620510F0B5C64600B506AC25784C0092
:103A80006618F60086193700DC373F68BC46CC362E
:103A90003668B0466418E400C83404190434C026FB
:103AA000B60134438026B6022660002D01D01F26C1
:103AB00014E0002612E05401A0256D0525434C00BA
:103AC0006418E40004192700DC373D60114D3543CC
:103AD000D8342560053B05321F242240052BEAD847
:103AE0009B06520113434C006218D2008218150045
:103AF000DC352B60074B1E43D832166063462B60C3
:103B00006118C9004018CC304346036080BCB846F9
:103B1000F0BDC04680E0000070B58AB004000D0022
:103B2000160002680121A9408A430260002B34D0AC
:103B300069004919C90041180A00C83218681060A4
:103B4000043258681060043298681060DB68DC3119
:103B50000B6069004B19DB00D033E318802252015F
:103B60001343802212061A601A60234BAB40A360F5
:103B70002B1D01221000984080239B0123431860D5
:103B80002800083082401A601F2216404919C900D7
:103B90006418D83426600AB070BD1022002106A82F
:103BA0003EF0B2F980235B020693F8235B02079391
:103BB0008023DB020893C0231B030893102206A96D
:103BC00002A83EF0A7F96B005B19DB00E3181A00AE
:103BD000C83202991160039A01921A00CC320199FD
:103BE0001160049A01921A00D03201991160059A6D
:103BF000DC331A60ADE7C0460101010101308000ED
:103C0000704730B500280DD005688D420FD10023D4
:103C10009D420ADD99004418646889588C4208D195
:103C20000133F5E74842484102E0012000E000206E
:103C300030BD0020FCE710B5884208D0002808D02D
:103C4000002908D00A0002CAFFF7DBFF10BD0120DF
:103C5000FCE70020FAE70020F8E700000D281DD857
:103C60008000104B1B589F460F4870470F48FCE7D9
:103C70000F48FAE70F48F8E70F48F6E70F48F4E770
:103C80000F48F2E70F48F0E70F48EEE70F48ECE780
:103C90000F48EAE70F48E8E70F48E6E70F48E4E790
:103CA0000F48E2E7F8620510F0620510886205101F
:103CB0009062051098620510A0620510A8620510B8
:103CC000B0620510B8620510C0620510CC62051024
:103CD000D8620510E0620510E862051070620510F8
:103CE000806205100EB400B582B003AA02CA019228
:103CF00003689B68984702B008BC03B018470CB42F
:103D000000B583B004AA02CA019203689B68984771
:103D100003B008BC02B01847052803D88300024A44
:103D2000D3589F460020704730630510002803D009
:103D3000012803D1013070470120FCE70020FAE799
:103D400010B5002806D0002906D0002A06D0002B86
:103D500006D010BD42F052F842F050F842F04EF852
:103D600042F04CF810B513000C2836D883001F4AD7
:103D7000D3589F460A230B70002010BD01230B70FF
:103D8000FBE70B230B700020F7E707230B700020E5
:103D9000F3E702230B700020EFE703230B700020F2
:103DA000EBE709230B700020E7E704230B700020EA
:103DB000E3E70D230B700020DFE705230B700020E5
:103DC000DBE706230B700020D7E708230B700020E9
:103DD000D3E70C230B700020CFE700220A7002000B
:103DE00003491800FFF77EFF0120C6E76C6305104A
:103DF000486305100020704700207047002070477E
:103E00000020704700207047002070470020704756
:103E10000020704700207047002070470020704746
:103E20000020704700207047002070470020704736
:103E30000020704700207047002070470020704726
:103E40000020704700207047002070470020704716
:103E50000020704700207047002070470020704706
:103E600000207047002070470020704700207047F6
:103E700000207047F0B5C64600B582B004000D00C2
:103E80001700019300291AD00868FCF7D3FB06003D
:103E9000A008B0421AD30024B44225D2A300984609
:103EA000B8442868FCF7C6FB844216D22B1DA2003A
:103EB0009858FCF7C5FB434618600134ECE7089AB4
:103EC0000C491800FFF70EFF01200EE0089A0A497E
:103ED0000198FFF707FF012007E08321074B084AFD
:103EE000490008483BF012FB002002B080BCB846F5
:103EF000F0BDC046A0630510D06305101464051022
:103F000020640510F0640510704710B50078FFF7C5
:103F1000FBFF10BDF0B5C64600B584B0040088466E
:103F200015001E00FFF70CFF2B681B6804220421FC
:103F3000280098470023036002950390071E0DD0C8
:103F40002000FCF77EFB251A2800FCF780FB0A28DE
:103F500010D928000A30FCF77AFB0CE02D4B0193B6
:103F60002D4B00932D4B2E4A41464046FFF7C7FE8E
:103F700001243DE00020002803D02018FFF7C5FFF2
:103F800000E00020232818D12000FCF75AFB251A56
:103F90002800FCF75CFB0C2804D928000C30FCF747
:103FA00056FB00E000202418002804D02000FCF775
:103FB00042FB241802E0002400E00024002C12D070
:103FC00025002000FCF73DFB241A2000FCF73FFBF6
:103FD00004281BD9201DFCF73AFB002818D028180C
:103FE000FCF72FFB3860039B33600023039300240E
:103FF0000399002903D0029803685B68984700235F
:104000000393200004B080BCB846F0BD0020E4E774
:104010000020E7E7F0650510590600006865051007
:10402000D8650510F0B5C64600B584B004008846D2
:1040300015001E00FFF784FE2B681B680422042174
:10404000280098470023036002950390071E0DD0B7
:104050002000FCF7F6FA251A2800FCF7F8FA0A28DF
:1040600010D928000A30FCF7F2FA0CE02D4B01932E
:104070002D4B00932D4B2E4A41464046FFF73FFE05
:1040800001243DE00020002803D02018FFF73DFF69
:1040900000E000204F2818D12000FCF7D2FA251AA2
:1040A0002800FCF7D4FA0C2804D928000C30FCF7BF
:1040B000CEFA00E000202418002804D02000FCF7ED
:1040C000BAFA241802E0002400E00024002C12D0E8
:1040D00025002000FCF7B5FA241A2000FCF7B7FAF7
:1040E00004281BD9201DFCF7B2FA002818D0281884
:1040F000FCF7A7FA3860039B336000230393002486
:104100000399002903D0029803685B68984700234D
:104110000393200004B080BCB846F0BD0020E4E763
:104120000020E7E7F06505107106000068650510DE
:10413000D8650510F0B5C64600B584B004000F0080
:1041400015001E00FFF7FCFD2B681B6804222421CC
:10415000280098478046242200213DF0D5FE029594
:10416000434603934546002B0ED02000FCF769FA26
:10417000231A98461800FCF76AFA0A2811D9404613
:104180000A30FCF764FA0DE0384B0193B723DB00EB
:104190000093374B374A39003800FFF7B0FD01353F
:1041A00051E00020002803D02018FFF7AEFE00E009
:1041B0000020112819D12000FCF743FA231A984651
:1041C0001800FCF744FA0C2804D940460C30FCF7E0
:1041D0003EFA00E000202418002804D02000FCF75C
:1041E0002AFA241802E0002400E00024002C25D044
:1041F000A0462000FCF725FA241A2000FCF727FA35
:1042000004282ED9201DFCF722FA43461C1800284A
:1042100029D02000FCF70FFA2418002C0ED0164BE2
:1042200000933B002A0021002020FFF723FE051EFB
:1042300009D12068FCF7FEF9039B1862039B3360E9
:104240000023039300250399002903D002980368F3
:104250005B68984700230393280004B080BCB846ED
:10426000F0BD0020D1E70024D7E7C046F065051077
:1042700068650510D865051004660510F0B5C646DA
:1042800000B584B00400884615001E00FFF758FDF5
:104290002B681B680422082128009847002303602C
:1042A000436002950390071E0DD02000FCF7C9F96A
:1042B000251A2800FCF7CBF90A2810D928000A3063
:1042C000FCF7C5F90CE0394B0193394B0093394B9E
:1042D000394A41464046FFF712FD012450E00020D4
:1042E000002803D02018FFF710FE00E0002040282F
:1042F00018D12000FCF7A5F9251A2800FCF7A7F92A
:104300000C2804D928000C30FCF7A1F900E00020AB
:104310002418002804D02000FCF78DF9241802E0AE
:10432000002400E00024002C25D025002000FCF70C
:1043300088F9241A2000FCF78AF904282ED9201DB8
:10434000FCF785F900282BD02818FCF77AF938609B
:104350002800FCF776F92C1A2000FCF778F90628DB
:1043600020D9A01DFCF773F900281DD02818FCF7F0
:1043700068F9039B5860039B336000230393002478
:104380000399002903D0029803685B6898470023CB
:104390000393200004B080BCB846F0BD0020D1E7F4
:1043A0000020D4E70020DFE70020E2E7F0650510F9
:1043B000F406000068650510D8650510F0B5C6461E
:1043C00000B584B00400884615001E00FFF7B8FC55
:1043D0002B681B68042208212800984700230360EB
:1043E000436002950390071E0DD02000FCF729F9C9
:1043F000251A2800FCF72BF90A2810D928000A30C2
:10440000FCF725F90CE0394B0193394B0093394BFC
:10441000394A41464046FFF772FC012450E0002033
:10442000002803D02018FFF770FD00E000203B2893
:1044300018D12000FCF705F9251A2800FCF707F928
:104440000C2804D928000C30FCF701F900E000200A
:104450002418002804D02000FCF7EDF8241802E00E
:10446000002400E00024002C25D025002000FCF7CB
:10447000E8F8241A2000FCF7EAF804282ED9201DB9
:10448000FCF7E5F800282BD02818FCF7DAF838609C
:104490002800FCF7D6F82C1A2000FCF7D8F80628DC
:1044A00020D9A01DFCF7D3F800281DD02818FCF750
:1044B000C8F8039B5860039B3360002303930024D8
:1044C0000399002903D0029803685B68984700238A
:1044D0000393200004B080BCB846F0BD0020D1E7B3
:1044E0000020D4E70020DFE70020E2E7F0650510B8
:1044F0003505000068650510D8650510F0B5C6469D
:1045000000B584B00400884615001E00FFF718FCB3
:104510002B681B68012201212800984700230370A3
:1045200002950390071E0DD02000FCF78AF8251A8B
:104530002800FCF78CF80A2810D928000A30FCF76C
:1045400086F80CE02E4B01932E4B00932E4B2F4AF6
:1045500041464046FFF7D3FB01243FE000200028FE
:1045600003D02018FFF7D1FC00E000201B2818D151
:104570002000FCF766F8251A2800FCF768F80C28DC
:1045800004D928000C30FCF762F800E00020241861
:10459000002804D02000FCF74EF8241802E0002484
:1045A00000E00024002C14D025002000FCF749F87E
:1045B000241A2000FCF74BF804281DD9201DFCF715
:1045C00046F800281AD02818FFF79FFC431E984190
:1045D0003870039B33600023039300240399002960
:1045E00003D0029803685B68984700230393200078
:1045F00004B080BCB846F0BD0020E2E70020E5E74B
:10460000F06505108E05000068650510D865051079
:10461000F0B5C64600B584B00400884615001E00FB
:10462000FFF78EFB2B681B680122022128009847A8
:1046300000230370437002950390071E0DD02000E5
:10464000FBF7FFFF251A2800FCF701F80A2811D90B
:1046500028000A30FBF7FBFF0DE03E4B0193BF2320
:10466000DB0000933C4B3D4A41464046FFF747FB89
:10467000012454E00020002803D02018FFF745FC57
:1046800000E000204A2818D12000FBF7DAFF251AA5
:104690002800FBF7DCFF0C2804D928000C30FBF7BE
:1046A000D6FF00E000202418002804D02000FBF7EB
:1046B000C2FF241802E0002400E00024002C44D0B3
:1046C00025002000FBF7BDFF241A2000FBF7BFFFE9
:1046D000042832D9201DFBF7BAFF00282FD0281854
:1046E000FFF713FC431E984138702800FBF7A9FF21
:1046F0002C1A2000FBF7ABFF062822D9A01DFBF7E0
:10470000A6FF00281FD02818FFF7FFFB431E984183
:10471000039B5870039B3360002303930024039989
:10472000002903D0029803685B689847002303932D
:10473000200004B080BCB846F0BD0020CDE70020CA
:10474000D0E70020DDE70020E0E700233B70039A7C
:104750005370DFE7F065051068650510D865051032
:10476000F0B5C64600B584B00400884615001E00AA
:10477000FFF7E6FA2B681B680422142128009847EB
:104780000700142200213DF0BFFB02950397002F84
:104790000DD02000FBF755FF251A2800FBF757FF27
:1047A0000A2810D928000A30FBF751FF0CE05C4BB7
:1047B00001935C4B00935C4B5C4A41464046FFF7DB
:1047C0009EFA01248AE00020002803D02018FFF779
:1047D0009CFB00E00020202818D12000FBF731FFCF
:1047E000251A2800FBF733FF0C2804D928000C30C9
:1047F000FBF72DFF00E000202418002804D0200043
:10480000FBF719FF241802E0002400E00024002C2C
:104810005FD025002000FBF714FF241A2000FBF7CF
:1048200016FF042868D9201DFBF711FF002865D06A
:104830002818FBF706FF38602800FBF702FF2C1A48
:104840002000FBF704FF06285AD9A01DFBF7FFFE46
:10485000002857D02818FBF7F4FE039B5860280067
:10486000FBF7EFFE2C1A2000FBF7F1FE08284BD9CE
:1048700020000830FBF7EBFE002847D02818FBF794
:10488000E0FE039FB8602800FBF7DBFE2C1A200037
:10489000FBF7DDFE0A283BD920000A30FBF7D7FEE4
:1048A000002837D02818FBF7CCFEF8602800FBF76B
:1048B000C8FE2C1A2000FBF7CAFE0C282CD92000B9
:1048C0000C30FBF7C4FE002828D02818FBF7B9FEEF
:1048D0003861039B3360002303930024039900296C
:1048E00003D0029803685B68984700230393200075
:1048F00004B080BCB846F0BD002097E700209AE7DE
:104900000020A5E70020A8E70020B5E70020B8E7D1
:104910000020C5E70020C8E70020D4E70020D7E743
:10492000F06505109B06000068650510D865051048
:10493000704710B5007840B2FFF7FAFF10BD0000D5
:10494000F0B5C64600B584B00400884615001E00C8
:10495000FFF7F6F92B681B68012201212800984710
:104960000023037002950390071E0DD02000FBF773
:1049700068FE251A2800FBF76AFE0A2810D92800CD
:104980000A30FBF764FE0CE02F4B01932F4B009392
:104990002F4B304A41464046FFF7B1F9012440E031
:1049A0000020002803D02018FFF7AFFA00E0002015
:1049B0000C2818D12000FBF744FE251A2800FBF72D
:1049C00046FE0C2804D928000C30FBF740FE00E01E
:1049D00000202418002804D02000FBF72CFE241807
:1049E00002E0002400E00024002C15D02500200067
:1049F000FBF727FE241A2000FBF729FE04281ED906
:104A0000201DFBF724FE00281BD02818FFF791FF7C
:104A1000C0B2FFF781F93870039B33600023039322
:104A200000240399002903D0029803685B68984723
:104A300000230393200004B080BCB846F0BD0020E2
:104A4000E1E70020E4E7C046F0650510AC04000093
:104A500068650510D8650510F0B5C64600B584B088
:104A60000400884615001E00FFF76AF92B681B68D2
:104A7000012201212800984700230370029503902A
:104A8000071E0DD02000FBF7DCFD251A2800FBF7E0
:104A9000DEFD0A2810D928000A30FBF7D8FD0CE00B
:104AA0002F4B01932F4B00932F4B304A41464046EA
:104AB000FFF725F9012440E00020002803D020184A
:104AC000FFF723FA00E00020152818D12000FBF79B
:104AD000B8FD251A2800FBF7BAFD0C2804D92800D8
:104AE0000C30FBF7B4FD00E000202418002804D0AF
:104AF0002000FBF7A0FD241802E0002400E00024C1
:104B0000002C15D025002000FBF79BFD241A200067
:104B1000FBF79DFD04281ED9201DFBF798FD0028FA
:104B20001BD02818FFF705FFC0B2FFF7F5F8387063
:104B3000039B33600023039300240399002903D0CF
:104B4000029803685B68984700230393200004B031
:104B500080BCB846F0BD0020E1E70020E4E7C04695
:104B6000F06505100C05000068650510D865051096
:104B7000F0B5C64600B584B00400884615001E0096
:104B8000FFF7DEF82B681B680422082128009847ED
:104B900000230360037102950390071E0DD02000CF
:104BA000FBF74FFD251A2800FBF751FD0A2810D905
:104BB00028000A30FBF74BFD0CE03B4B01933B4BCD
:104BC00000933B4B3B4A41464046FFF798F801248F
:104BD00053E00020002803D02018FFF796F900E0EA
:104BE00000200A2818D12000FBF72BFD251A2800E9
:104BF000FBF72DFD0C2804D928000C30FBF727FD0E
:104C000000E000202418002804D02000FBF713FD4A
:104C1000241802E0002400E00024002C28D0250005
:104C20002000FBF70EFD241A2000FBF710FD0628DC
:104C300031D9A01DFBF70BFD00282ED02818FFF757
:104C400078FEC0B2FFF768F838712800FBF7F9FC6E
:104C50002C1A2000FBF7FBFC042820D9201DFBF7B1
:104C6000F6FC00281DD02818FBF7EBFC039B18600E
:104C7000039B33600023039300240399002903D08E
:104C8000029803685B68984700230393200004B0F0
:104C900080BCB846F0BD0020CEE70020D1E7002060
:104CA000DFE70020E2E7C046F0650510DE03000004
:104CB00068650510D8650510F0B5C64600B584B026
:104CC0000400884615001E00FFF73AF82B681B68A1
:104CD00001220221280098470023037043700295A7
:104CE0000390071E0DD02000FBF7ABFC251A28000F
:104CF000FBF7ADFC0A2811D928000A30FBF7A7FC06
:104D00000DE03C4B0193E2239B0000933A4B3B4A5E
:104D100041464046FEF7F3FF012455E000200028FD
:104D200003D02018FFF7F1F800E000200B2818D17D
:104D30002000FBF786FC251A2800FBF788FC0C28CE
:104D400004D928000C30FBF782FC00E00020241876
:104D5000002804D02000FBF76EFC241802E0002499
:104D600000E00024002C2AD025002000FBF769FC7D
:104D7000241A2000FBF76BFC042833D9201DFBF715
:104D800066FC002830D02818FFF7D3FDC0B2FEF72C
:104D9000C3FF38702800FBF754FC2C1A2000FBF7E7
:104DA00056FC062822D9A01DFBF751FC00281FD075
:104DB0002818FFF7AAF8431E9841039B5870039BDD
:104DC00033600023039300240399002903D0029841
:104DD00003685B68984700230393200004B080BCFD
:104DE000B846F0BD0020CCE70020CFE70020DDE78B
:104DF0000120E0E7F065051068650510D86505102D
:104E0000F0B5C64600B584B00400884615001E0003
:104E1000FEF796FF2B681B680122022128009847A5
:104E200000230370437002950390071E0DD02000ED
:104E3000FBF707FC251A2800FBF709FC0A2810D904
:104E400028000A30FBF703FC0CE03C4B01933C4B81
:104E500000933C4B3C4A41464046FEF750FF01243C
:104E600055E00020002803D02018FFF74EF800E09E
:104E700000201C2818D12000FBF7E3FB251A28008E
:104E8000FBF7E5FB0C2804D928000C30FBF7DFFB0F
:104E900000E000202418002804D02000FBF7CBFB02
:104EA000241802E0002400E00024002C2AD0250071
:104EB0002000FBF7C6FB241A2000FBF7C8FB0428E0
:104EC00033D9201DFBF7C3FB002830D02818FFF78B
:104ED00030FDC0B2FEF720FF38702800FBF7B1FBB1
:104EE0002C1A2000FBF7B3FB062822D9A01DFBF7E4
:104EF000AEFB00281FD02818FFF707F8431E984183
:104F0000039B5870039B3360002303930024039991
:104F1000002903D0029803685B6898470023039335
:104F2000200004B080BCB846F0BD0020CCE70020D3
:104F3000CFE70020DDE70120E0E7C046F06505107F
:104F4000B706000068650510D8650510F0B5C646BF
:104F500000B584B00400884616001D00FEF7F0FE80
:104F600033681B680422082130009847002303603F
:104F70000371437102960390071E0DD02000FBF7CA
:104F800060FB261A3000FBF762FB0A2810D93000BC
:104F90000A30FBF75CFB0CE0474B0193474B009357
:104FA000474B484A41464046FEF7A9FE012469E0C6
:104FB0000020002803D02018FEF7A7FF00E0002003
:104FC000062818D12000FBF73CFB261A3000FBF71F
:104FD0003EFB0C2804D930000C30FBF738FB00E016
:104FE00000202418002804D02000FBF724FB2418FC
:104FF00002E0002400E00024002C3ED02600200027
:10500000FBF71FFB241A2000FBF721FB042847D9DC
:10501000201DFBF71CFB002844D03018FBF711FBC8
:1050200038603000FBF70DFB341A2000FBF70FFB54
:10503000062839D9A01DFBF70AFB002836D0301806
:10504000FFF777FCC0B2FEF767FE039B18713000D4
:10505000FBF7F7FA341A2000FBF7F9FA082827D9EA
:1050600020000830FBF7F3FA002823D03018FEF7B1
:105070004CFF431E9841039B5871039B2B600023F8
:10508000039300240399002903D0029803685B6806
:10509000984700230393200004B080BCB846F0BDBD
:1050A0000020B8E70020BBE70020C6E70020C9E7E2
:1050B0000020D9E70020DCE7F0650510D1060000EC
:1050C00068650510D8650510F0B587B00400039138
:1050D00016001F0013681B68012201213000984749
:1050E0000023037004960590051E0DD02000FBF7E9
:1050F000A8FA261A3000FBF7AAFA0A2810D93000BD
:105100000A30FBF7A4FA0CE02F4B01932F4B0093CE
:105110002F4B304A03990800FEF7F1FD012443E0CC
:105120000020002803D02018FEF7EFFE00E000204A
:10513000372818D12000FBF784FA261A3000FBF735
:1051400086FA0C2804D930000C30FBF780FA00E016
:1051500000202418002804D02000FBF76CFA241843
:1051600002E0002400E00024002C18D026002000DB
:10517000FBF767FA241A2000FBF769FA04281FD905
:10518000201DFBF764FA00281CD03018FFF7D1FB74
:10519000C0B2039A2900FEF7E5FD041E04D1059B69
:1051A0003B600023059300240599002903D004984F
:1051B00003685B68984700230593200007B0F0BDA3
:1051C0000020E0E70020E3E7F06505101F0600007F
:1051D00068650510D8650510F0B5C64600B584B001
:1051E00004000F0016001D00FEF7AAFD33681B68BF
:1051F000012201213000984700230370029603909A
:10520000804600280DD02000FBF71BFA261A30003C
:10521000FBF71DFA0A2810D930000A30FBF717FAFD
:105220000CE0314B0193314B0093314B314A390043
:105230003800FEF764FD012443E00020002803D07D
:105240002018FEF762FE00E00020282818D1200078
:10525000FBF7F7F9261A3000FBF7F9F90C2804D907
:1052600030000C30FBF7F3F900E000202418002890
:1052700004D02000FBF7DFF9241802E0002400E04E
:105280000024002C18D026002000FBF7DAF9241A9D
:105290002000FBF7DCF9042821D9201DFBF7D7F902
:1052A00000281ED03018FFF744FBC0B23A00414638
:1052B000FEF758FD041E04D1039B2B6000230393CB
:1052C00000240399002903D0029803685B6898477B
:1052D00000230393200004B080BCB846F0BD00203A
:1052E000DEE70020E1E7C046F0650510A2030000FC
:1052F00068650510D8650510F0B5C64600B584B0E0
:1053000004000F0016001D00FEF71AFD33681B682D
:105310000122012130009847002303700296039078
:10532000804600280DD02000FBF78BF9261A3000AC
:10533000FBF78DF90A2810D930000A30FBF787F9FE
:105340000CE0314B0193314B0093314B314A390022
:105350003800FEF7D4FC012443E00020002803D0ED
:105360002018FEF7D2FD00E00020392818D12000D7
:10537000FBF767F9261A3000FBF769F90C2804D906
:1053800030000C30FBF763F900E0002024180028FF
:1053900004D02000FBF74FF9241802E0002400E0BD
:1053A0000024002C18D026002000FBF74AF9241A0C
:1053B0002000FBF74CF9042821D9201DFBF747F901
:1053C00000281ED03018FFF7B4FAC0B23A004146A8
:1053D000FEF7C8FC041E04D1039B2B60002303933B
:1053E00000240399002903D0029803685B6898475A
:1053F00000230393200004B080BCB846F0BD002019
:10540000DEE70020E1E7C046F0650510BB030000C1
:1054100068650510D8650510F0B5C64600B584B0BE
:105420000400884615001E00FEF78AFC2B681B68E6
:1054300004221C212800984707001C2200213CF070
:1054400063FD02950397002F0DD02000FBF7F9F8BC
:10545000251A2800FBF7FBF80A2810D928000A3083
:10546000FBF7F5F80CE07A4B01937A4B00937A4BFB
:105470007A4A41464046FEF742FC0124BDE0002046
:10548000002803D02018FEF740FD00E0002002288D
:1054900018D12000FBF7D5F8251A2800FBF7D7F81C
:1054A0000C2804D928000C30FBF7D1F800E00020CC
:1054B0002418002804D02000FBF7BDF8241802E0CF
:1054C000002400E00024002C00D191E02500200001
:1054D000FBF7B7F8241A2000FBF7B9F8042800D826
:1054E00099E0201DFBF7B3F8002800D195E02818BB
:1054F000FFF71FFAC0B2FEF719FC38702800FBF75F
:10550000A0F82C1A2000FBF7A2F8062800D886E0A5
:10551000A01DFBF79CF8002800D182E02818FBF7BB
:1055200090F8039B58602800FBF78BF82C1A20009A
:10553000FBF78DF8082800D875E020000830FBF74D
:1055400086F8002800D170E02818FBF77AF8039C51
:10555000A0602800FBF775F82F1A3800FBF777F8E2
:105560000A2864D938000A30FBF771F8002860D0A7
:105570002818FBF766F8E0602800FBF762F82F1A9E
:105580003800FBF764F80C2855D938000C30FBF7CD
:105590005EF8002851D02818FFF7CBF9C0B2FEF70B
:1055A000BBFB20742800FBF74CF82F1A3800FBF7E0
:1055B0004EF80E2843D938000E30FBF748F8002883
:1055C0003FD02818FBF73DF860612800FBF739F859
:1055D0002F1A3800FBF73BF8102834D93800103068
:1055E000FBF735F8002830D02818FBF72AF8A0611F
:1055F000039B33600023039300240399002903D005
:10560000029803685B68984700230393200004B066
:1056100080BCB846F0BD002066E700206AE70020A5
:1056200079E700207DE700208BE700208FE700204E
:105630009CE700209FE70020ABE70020AEE70020BA
:10564000BDE70120C0E70020CCE70120CFE7C0463E
:10565000F06505102304000068650510D865051085
:10566000F0B5C64600B584B00400884615001E009B
:10567000FEF766FB2B681B6801220421280098476F
:105680000700042200213CF03FFC029503973D1ED9
:1056900028D02000FAF7D5FF271A3800FAF7D7FFED
:1056A0000A282BD938000A30FAF7D1FF002827D072
:1056B0002018FEF72AFC082828D12000FAF7C1FF9D
:1056C000271A3800FAF7C3FF0C281BD938000C3012
:1056D000FAF7BDFF2418002816D02000FAF7ABFF18
:1056E000241814E04E4B01934E4B00934E4B4F4AFF
:1056F00041464046FEF703FB01247FE00020D5E74A
:105700000020D8E70020E5E7002400E00024002C7A
:105710006FD027002000FAF794FF241A2000FAF730
:1057200096FF042852D9201DFAF791FF00284FD088
:105730003818FFF7FEF8C0B2FEF7EEFA287038000E
:10574000FAF77FFF3C1A2000FAF781FF082841D9B9
:1057500020000830FAF77BFF00283DD03818FEF70C
:10576000D4FB431E9841039B98703800FAF769FFF9
:105770003C1A2000FAF76BFF0A282FD920000A30C4
:10578000FAF765FF00282BD03818FEF7BEFB431E42
:105790009841039BD8703800FAF753FF3C1A200059
:1057A000FAF755FF06281DD9A01DFAF750FF00286B
:1057B0001AD03818FFF7BDF8002817D001282BD0D1
:1057C0001B494046FEF78EFA012417E00020ADE7A2
:1057D0000020B0E70020BFE70020C2E70020D1E7AB
:1057E0000020D4E70020E2E70020E5E70023039A49
:1057F0005370039B33600023039300240399002913
:1058000003D0029803685B68984700230393200045
:1058100004B080BCB846F0BD0123039A5370E8E79A
:10582000F06505106704000068650510D86505106F
:105830000C660510F0B5C64600B584B00400884675
:1058400015001E00FEF77CFA2B681B680422182145
:10585000280098470700182200213CF055FB0295CC
:105860000397002F0DD02000FAF7EBFE251A280031
:10587000FAF7EDFE0A2810D928000A30FAF7E7FEF9
:105880000CE06D4B01936D4B00936D4B6D4A41469F
:105890004046FEF734FA0124A7E00020002803D098
:1058A0002018FEF732FB00E00020012818D120006C
:1058B000FAF7C7FE251A2800FAF7C9FE0C2804D902
:1058C00028000C30FAF7C3FE00E00020241800285E
:1058D00004D02000FAF7AFFE241802E0002400E014
:1058E0000024002C7CD025002000FAF7AAFE241A00
:1058F0002000FAF7ACFE042800D884E0201DFAF757
:10590000A6FE002800D180E02818FFF712F8C0B2E8
:10591000FEF70CFA38702800FAF793FE2C1A2000D4
:10592000FAF795FE062800D871E0A01DFAF78FFE61
:10593000002800D16DE02818FAF783FE039B586019
:105940002800FAF77EFE2C1A2000FAF780FE0828BD
:1059500061D920000830FAF77AFE00285DD02818B7
:10596000FAF76FFE039FB8602800FAF76AFE2C1A58
:105970002000FAF76CFE0A2851D920000A30FAF705
:1059800066FE00284DD02818FEF7D3FFC0B2FEF700
:10599000C3F938732800FAF754FE2C1A2000FAF7DE
:1059A00056FE0C283FD920000C30FAF750FE002894
:1059B0003BD02818FAF745FE38612800FAF741FE77
:1059C0002C1A2000FAF743FE0E2830D920000E30A2
:1059D000FAF73DFE00282CD02818FAF732FE78613D
:1059E000039B33600023039300240399002903D011
:1059F000029803685B68984700230393200004B073
:105A000080BCB846F0BD00207BE700207FE7002087
:105A10008EE7002092E700209FE70020A2E7002009
:105A2000AFE70020B2E70020C1E70120C4E7002073
:105A3000D0E70120D3E7C046F0650510F903000068
:105A400068650510D8650510F0B5C64600B584B088
:105A50000400884615001E00FEF772F92B681B68CB
:105A600004222821280098470700282200213CF022
:105A70004BFA02950397002F0DD02000FAF7E1FDB5
:105A8000251A2800FAF7E3FD0A2810D928000A3061
:105A9000FAF7DDFD0CE06D4B01936D4B00936D4B00
:105AA0006D4A41464046FEF72AF90124A7E000204E
:105AB000002803D02018FEF728FA00E0002005286F
:105AC00018D12000FAF7BDFD251A2800FAF7BFFD0E
:105AD0000C2804D928000C30FAF7B9FD00E00020AA
