:020000041000EA
:1000000000B50C4B00219960042159610A4919601F
:100010000A490B480160002159600121996001BC27
:10002000002800D0004707480749086003C880F34C
:10003000088808470000001800031F00180200038A
:10004000F40000180001001008ED00E000000000BE
:1000500000000000000000000000000000000000A0
:100060000000000000000000000000000000000090
:100070000000000000000000000000000000000080
:100080000000000000000000000000000000000070
:100090000000000000000000000000000000000060
:1000A0000000000000000000000000000000000050
:1000B0000000000000000000000000000000000040
:1000C0000000000000000000000000000000000030
:1000D0000000000000000000000000000000000020
:1000E0000000000000000000000000000000000010
:1000F0000000000000000000000000002CEC210DBA
:1001000000200420F7010010C3010010C5010010F9
:10011000C1010010C1010010C1010010C101001097
:10012000C1010010C1010010C1010010C701001081
:10013000C1010010C1010010C9010010CB01001065
:10014000CD010010CD010010CD010010CD01001037
:10015000CD010010CD010010CD010010CD01001027
:10016000CD010010CD010010CD010010CD01001017
:10017000CD010010CD010010CD010010CD01001007
:10018000CD010010CD010010CD010010CD010010F7
:10019000CD010010CD010010CD010010CD010010E7
:1001A000CD010010CD010010CD010010CD010010D7
:1001B000CD010010CD010010CD010010CD010010C7
:1001C00000BE00BE00BE00BE00BE00BEEFF3058054
:1001D000103800BEF2EB887180FA0510A8FA0510FD
:1001E0003402001090A31AE700201F49086006C8D7
:1001F00081F3088810471D48006800282FD10DA4FE
:100200000ECC002902D000F012F8F9E71849194A7B
:10021000002000E001C19142FCD1174988471749ED
:1002200088471749884700BEFDE701C901C29A42C5
:10023000FBD37047A8FA0510C000002080160020EC
:10024000681006100000042000000420681006104A
:10025000001004200010042000000000704709482E
:1002600044F086FA0047000008ED00E0000000D0EE
:10027000801600206C370020C5340410E105001002
:10028000833404105756000006005250ABB360533D
:1002900050F2051006005250861C030260F2051051
:1002A000060052505422A29D70F2051005005250D3
:1002B000DE65F46868100610F8B5C0460448054BC2
:1002C00010B5834203D0044B002B00D0984710BDDB
:1002D0008016002080160020000000000648074914
:1002E000091A8B10C90FC91810B5491003D0044B57
:1002F000002B00D0984710BD8016002080160020EB
:100300000000000010B5074C2378002B09D1FFF73F
:10031000D5FF054B002B02D0044800E000BF0123AD
:10032000237010BD8817002000000000489F0410B3
:10033000054B10B5002B03D00449054800E000BF71
:10034000FFF7CCFF10BDC046000000008C17002056
:10035000489F041070B504000A4B08330360856998
:10036000002D08D028003EF0B0F99821280045F073
:100370009BFD0023A361E068002801D045F090FDBB
:10038000200070BDF89F041010B50400FFF7E2FFD5
:100390000249200045F088FD200010BDB412000085
:1003A00010B50400084B08330360416082600023ED
:1003B000C360064A026143618361C3610362243002
:1003C00005F062FF200010BDF89F0410F4E905104D
:1003D000F8B5CE46474680B50600904699460024BB
:1003E000F569AB69A34204D92B690A571A55013440
:1003F000F6E7B0693EF05CFD00281CD1002404E063
:100400002300434400221A700134356AAB69A342C9
:1004100013D92B691857EB68C01A45F051FAA9682F
:1004200045F0F5F9494645F039FA0028E8D00123AE
:1004300042461355E8E7002000E001200CBC90463E
:100440009946F8BDC369002B01D0986870470148F0
:10045000FCE7C0460000C07F036A002B01D098680B
:1004600070470148FCE7C0460000C07FC369002B0D
:1004700001D0986970470020FCE7036A002B01D087
:10048000986970470020FCE7C369002B01D0D86849
:1004900070470020FCE7036A002B01D0D868704742
:1004A0000020FCE7704710B50068FFF7FBFF10BDA8
:1004B000704710B50068FFF7FBFF10BD704710B51F
:1004C0000088FFF7FBFF10BD10B504000068FFF7C0
:1004D000E9FF201810BD10B5FFF7F6FF10BD0000B2
:1004E00070B584B004004068FFF7F5FF0500606157
:1004F000FFF7DFFF2E1A3000FFF7E1FF042813D9C2
:10050000301DFFF7DCFF002810D02818FFF7CBFFC5
:100510000200032A0CD0200010300323244903F0EA
:100520001BFA002004B070BD0020ECE70022F0E7C9
:10053000A06845F0B1FCE060002824D0982045F088
:10054000A7FC050026001036220024320023029367
:100550000196A3680093E36861693EF049F9A561DB
:10056000002D18D028003EF0BDFB002819D1002135
:10057000A0693EF02BFAE0610021A0693EF066F927
:1005800020620120CEE720001030A268094903F064
:10059000E3F90020C6E70849300003F0DDF9002048
:1005A000C0E70649300003F0D7F90020BAE7C0469B
:1005B000489F0410909F0410BC9F0410DC9F0410FF
:1005C00010B582B00024009448F09CFB02B010BD2E
:1005D00010B582B00024009448F088FB02B010BD32
:1005E000F0B5C64600B5B0B045F0CEFD914802F07A
:1005F000BFFA9148FFF774FF002803D18F4845F0F8
:1006000087FDFEE78E4845F083FD8B4C2000FFF709
:100610002DFF01008B4B18608B4845F0A9FD200091
:10062000FFF72BFF0100894B1860894845F0A0FDBA
:100630002000FFF707FF874B186045F0A5F902007F
:100640000B00854845F094FD2000FFF71DFF0100D9
:10065000824B1860824845F08BFD2000FFF7FCFEBE
:10066000804B186045F090F902000B007E4845F081
:100670007FFD2000FFF70FFF01007C4B18607C48D6
:1006800045F076FD192001F08BF9D0231B0680225E
:1006900092045A629A617749774848F0FBFA03213D
:1006A000022001F04BF90321080001F047F9002274
:1006B0000121022001F05AF900220121032001F05A
:1006C00055F901A96D4B0A0031CB31C231CB31C292
:1006D00031CB31C20AA800F001FB011E1CDB3C2219
:1006E0001100674800F04DFD061E25D0554B1D68D2
:1006F000280045F0A3FB0400624B1860534B1868B8
:1007000045F09CFB604B18602A000021200045F05A
:10071000B3FB0023984675E05C4845F029FDD024E2
:1007200024068025AD046561C82002F021FAA56188
:10073000C82002F01DFAF2E7554B564A762156487A
:1007400042F0A2FE07001DE0B3687B431B19326A2A
:10075000D25CBB011B194B4909684048006812185C
:10076000CA54B3687B43E318326AD25C4B4968468B
:1007700043F0CCFF69464A4845F0FAFC01343B2C73
:10078000E2DD01373B2F01DC2C00F8E70A2045F0C1
:100790008BFC434608220821424845F0E9FC02F060
:1007A0009BFA394B1A68374B19683F4B2248FFF7C1
:1007B0000FFE002811DD2F000BE0FB001B19324A51
:1007C0001268D156394845F0D3FC0134072CF4DDCA
:1007D0000137072F04DC2C00F8E7354845F098FC7A
:1007E000284B1868174B1A68002145F045FB0A2072
:1007F00045F05AFC01239C46E044FA239B009845AF
:1008000000DBA84643463C223C212A4845F0B0FC88
:10081000012231000AA800F0A9FC051E92D0D024C4
:1008200024068025AD046561FA20400002F0A0F99D
:10083000A561E7E7B80B00006421002008A00410C0
:1008400028A004104C3400204CA004105034002088
:1008500060A004104434002074A0041088340020E8
:1008600088A0041024340020A0A004102834002004
:10087000B4A00410A0860100100E002040A10410B6
:1008800059553136E01C0020E41C0020CCA0041097
:10089000E4A00410E8A00410F4A0041018E6051069
:1008A00088BF05101CA10410CDCCCC3E08EC05106F
:1008B00030A1041008A1041070B504000D00012837
:1008C00005D0002C02D1094B9D420AD070BD074BC8
:1008D0009942F6D19622920205490648FFF760FD3B
:1008E000EFE70448FFF736FDF0E7C046FFFF0000E2
:1008F00068A104106421002010B502490120FFF70F
:10090000DBFF10BDFFFF000010B50D4B1C68002C75
:1009100011D08C23E358002B0DD09023E358002BEB
:1009200006D09023E3588C22A0580832A15898474B
:100930008C230022E250034B01221A6310BDC046F3
:100940009C3400200000205010B50D4B5C68002C3A
:1009500011D08C23E358002B0DD09023E358002BAB
:1009600006D09023E3588C22A0580832A15898470B
:100970008C230022E250034B01221A6310BDC046B3
:100980009C34002000003050054B984206D0054BA7
:10099000984201D0002070470120FCE70120FAE7CF
:1009A0005955313659555956094B984209D0094B7A
:1009B00098420AD0084B984201D00020704702208C
:1009C000FCE748424141C8B2F8E70220F6E7C046DA
:1009D000595531365955595652473136012807D0A5
:1009E000022807D0002801D0002070470130FCE722
:1009F0000220FAE70420F8E7084B984209D0084B98
:100A0000984208D0074B984201D000207047064812
:100A1000FCE70648FAE70448F8E7C046595531367E
:100A200059555956524731366C820510548205107B
:100A3000084B984209D0084B984208D0074B98427F
:100A400001D0012070470220FCE70220FAE70220D3
:100A5000F8E7C0465955313659555956524731363F
:100A600070B582B004006B460A22DA716B46002230
:100A70009A71052303E0642002F07AF82B005D1ED2
:100A8000002B1ED001236A4607322121A068266868
:100A9000B0470128EFD101236A4606322121A06820
:100AA0006668B047012808D16B4606331B78762B61
:100AB00007D0642002F05CF8E0E7642002F058F808
:100AC000DCE76B469879763843425841C0B202B0B1
:100AD00070BD0000F0B5DE4657464E464546E0B5CF
:100AE00083B0814683689846DC683D4B9C4202D0C7
:100AF0003C4B9C420DD13C49200002F0F7FD4B4697
:100B000018613A49200002F0F1FD4B46D8600026FA
:100B100029E0374B374A3C21374842F0B5FC0621E3
:100B200000F00CFF0135012D06D8534658192C4B07
:100B30009C42F4D00721F3E70023009309333A00E5
:100B40005946200002F0EEFD002503E0062100F0EA
:100B5000F5FE0135082D05D87819214B9C42F5D0BA
:100B60000721F4E70136032E0FDCB34643469B69A9
:100B70009A464346DF690023009302335246310010
:100B8000200002F0CFFD0025CDE796235B008022F8
:100B90005200E250124B9C4209D0124B9C4212D0A0
:100BA00003B03CBC90469946A246AB46F0BD134B01
:100BB0004A461A601249072000F09CFF01210720D5
:100BC00000F06EFFECE70D4B4A465A600D490920D4
:100BD00000F090FF0121092000F062FFE0E7C0462D
:100BE00000002050000030501482051028820510AB
:100BF000B880051004820510D48005109C340020B4
:100C00000909001049090010F0B5C64600B50600F4
:100C10008568EA6813680F218B43136080239B016A
:100C2000EA681343F0221A6000220FE053009B1879
:100C3000DB00D0331900EB689C46614480235B01E4
:100C40000B4380210906196019600132032AEDDD8A
:100C5000306AFFF7D1FEEF68F36898460021037908
:100C6000994212D2027843781B021343827812040D
:100C70001343C27812061A4343465B184C00A25A2B
:100C800018339B00DA510131E9E7306A00F0F6FAD7
:100C90000700002410E0013423014833F318043323
:100CA00032692100E86802F08FFDE9680A680123D3
:100CB000A3409A4313430B60A742ECDC33004C3350
:100CC000F2680021E86802F07FFDEA6813680121FC
:100CD0008B430B43136004BC9046F0BDF0B5C64691
:100CE00000B590B004000E009822002145F0C4F831
:100CF00033699846706944F0DEFD071C44F034FE09
:100D0000050044F0D8FD011C381C44F060FD87212B
:100D1000C90544F07CFD44F027FEC3B22A00062139
:100D2000404600F053FD3822002102A845F0A4F807
:100D300001235B42009301930C220021200045F027
:100D40009BF86B466360A6601E2001F011FF300027
:100D5000FFF786FE00282ED0002303220121200069
:100D600000F0C4FB002829D1336A002B01DB0025E9
:100D70000CE000251CE0336A581902F003FC336ACA
:100D80005A192B1D9B00E3185A600135022DF2DD24
:100D90002000FFF79FFE002010B004BC9046F0BD7D
:100DA000012002F0FBFB2B1D9B00E318586001356E
:100DB000022DF5DDECE701204042EDE70120404245
:100DC000EAE70000F0B5DE4657464E464546E0B538
:100DD00095B006000F00924699463C2A00D00BE1E0
:100DE0004B463C2B00D00AE1836898460800FFF789
:100DF000CBFD0100404600F0A9FA0321404600F077
:100E000063FBF46843469D6900230B9380235B02D8
:100E10000893F8235B020993C0231B030A93102253
:100E200008A904A845F02EF823001133E4011B03A0
:100E30001C430594102204A908A845F023F80B9B35
:100E40000193704B019A1340ED031D430B950CACBD
:100E5000102208A9200045F015F833004C3307CCC8
:100E600007C322681A60380000F008FA03900024D3
:100E700071E0654B654AC321654842F005FB654B4F
:100E8000654ACF31624842F0FFFA002252183F2AE9
:100E900000D99BE061490B40D2031343220010327A
:100EA00092009351FFF79AFD05000422121A2300C5
:100EB0000C339B00F3185A604B4652465946380093
:100EC00000F02AFA290043F0A7FC0A34A4003051AC
:100ED00034694346DB699B4600230B9380235B0206
:100EE0000893F8235B020993C0231B030A93102283
:100EF00008A904A844F0C6FF231DE4011B031C43FA
:100F00000594102204A908A844F0BCFF0B9B02938F
:100F10003C4B029A13405A46D20313430B930A9B4D
:100F200002933F481840A023DB020343ED05F8205D
:100F3000400405401D430A9510AC102208A920006A
:100F400044F0A0FF019A1301F3184C3323CC23C3C0
:100F5000216819601400039BA3423DDDE3B29B4668
:100F600019003800FFF720FD231D9B00F318596876
:100F70002C4B0C2900D97CE72B4D2B40C9020B438D
:100F80000C218B4304390B4328490B4028490B4063
:100F900028490B4001210B4327490B4002218B4379
:100FA000022800D96BE70C229343820013431022DE
:100FB000934310321343621C0192611D1F4A454640
:100FC000ED68954200D160E708225FE71C4B1D4A9F
:100FD000B5210F4842F058FA37625346B3844B4666
:100FE000F3843000FFF710FE002015B03CBC9046A3
:100FF0009946A246AB46F0BD01204042F5E70120EC
:101000004042F2E7FF7FF0FFE0800510C08105104D
:101010000081051050810510DC810510FF7FE0FF85
:10102000FFFF0AFE10801F00FF87FFFF3FF8FFFF52
:10103000FFFFBFFFFFFFDFFFFFFF7FFF000020502C
:1010400094810510A8810510F0B5DE4657464E463E
:101050004546E0B583B005000F00924699460CABBB
:101060001A780DAB1B789B468C23C358002B00D0FD
:1010700076E00968036A8B420FD0002A00D172E043
:10108000FB88BA882800FFF79DFEAB689846286A5F
:1010900000F0F4F8019000242BE0436A7868834262
:1010A000EBD1F2E7231D9B00EB185E6823000833A9
:1010B0009B00DA592100093189004346DB689C46D0
:1010C000614423000C339B00EB185B68C9182300B4
:1010D0000A339B005B59B601A020C00584466644D4
:1010E00031607260B360230010339B005B59F36082
:1010F0000134019BA342D5DCBC883868FFF798FC1B
:101100000100200043F060FB8C23EF500433524673
:10111000EA5004334A46EA504346DB68F988012224
:101120001A6301395A68D203FCD4196101385A682C
:10113000D203FCD418615B46002B07D1002003B01A
:101140003CBC90469946A246AB46F0BD8C23EB587A
:10115000002B03D0012001F00BFDF7E70020EEE7A4
:1011600002204042EBE701204042E8E700B583B0AF
:1011700001230193009200230022FFF765FF03B0D3
:1011800000BDF0B5D6464F464646C0B582B0804653
:10119000894692462C2044F051FE051E43D02C2255
:1011A000002144F069FE43462B604B46AB8053461A
:1011B000EB80404600F062F8070000240197A74248
:1011C00031DDE3B24A461E001900404600F094F8B3
:1011D000A31C9B00E85053464A463100404600F0AD
:1011E0009BF8231D9B00EB18586044F027FE060077
:1011F000230008339B00585100280ED00134DDE74E
:101200000134019BA3420ADD230008339B00585997
:101210000028F5D044F024FEF2E70024F1E728008E
:1012200044F01EFE3500280002B01CBC90469946D2
:10123000A246F0BD70B584B004006B46DA1D117093
:101240000123212180682568A84766680F256D4421
:10125000A06801232A002121B047287804B070BD7E
:1012600010B582B0046880686B4619715A71022308
:1012700001AA2121A04702B010BD0000084B9842EE
:1012800009D0084B984208D0074B984201D0002063
:1012900070470120FCE70320FAE70120F8E7C04689
:1012A000595531365955595652473136084B98429F
:1012B00009D0084B984208D0074B984201D0002033
:1012C00070470220FCE70120FAE70220F8E7C04659
:1012D000595531365955595652473136054B984272
:1012E00001D001207047002901D10120FAE7022036
:1012F000F8E7C0465955313670B504000D001600A8
:10130000FFF7D4FF464329002000FFF7E7FF010065
:10131000300043F059FA70BD10B51C00FFF7ECFF28
:10132000604310BD70B506000D0000246300EA188C
:10133000E95CC92908D852783000FFF791FF0120F5
:1013400001F016FC0134F1E770BD000010B5002972
:1013500004D10449FFF7E6FF002010BD0249FFF762
:10136000E1FFF9E74083051048830510F8B5DE4634
:1013700057464E464546E0B504000D001600994616
:101380000AAB1B789A460BAB1B789846002900D114
:101390008EE00422042D00D18CE00C212000FFF708
:1013A0005FFF002D00D189E02A001832D2B23E2121
:1013B0002000FFF755FF2B1C032D00D903231A0132
:1013C000D218D2B272212000FFF74AFF002D00D1BF
:1013D00076E02A00103AD2B273212000FFF740FFD6
:1013E000042D6FD0202570212000FFF723FF070078
:1013F00071212000FFF71EFF7F239F437AB22A430B
:10140000D2B2984340B20543EDB270212000FFF7FD
:1014100027FF2A0071212000FFF722FF3700E13764
:10142000FF37A02080004844C421890043F0CCF954
:101430000D008BB29B464B46DA08D2B21721200032
:10144000FFF70EFF5B46DA08D2B218212000FFF743
:1014500007FF53469B01EA0038252A401A4352B23F
:10146000072349460B401A43D2B232212000FFF72E
:10147000F7FEB20819212000FFF7F2FEBA081A2180
:101480002000FFF7EDFEBF000C223A4003273E404C
:10149000324303212000FFF7E3FE4246A221200051
:1014A000FFF7DEFE3CBC90469946A246AB46F8BD2F
:1014B0000A006FE708231A43D2B26EE72A0076E7E4
:1014C000082289E73C358EE730B583B0064A8D00A7
:1014D00054196378AA5CE5780195A4780094FFF725
:1014E00045FF03B030BDC04650830510F0B5C64679
:1014F00000B504000E0090469620400001F038FB35
:101500006368186800283BDA6368586800284ADB7B
:1015100000F046FA63685B6801273A009A40D025DC
:101520002D066A6263685B683A009A40AA610120EE
:1015300001F01EFB63685B689F406F61FA208000CA
:1015400001F016FB01221121A068FFF789FE40225D
:101550006B21A068FFF784FE3100A068FFF7F6FE5C
:101560001449A068FFF7DEFEA0684146FFF7ACFF14
:101570009620400001F0FCFA002004BC9046F0BD2B
:1015800000F00EFA63681A68012319009140D02216
:1015900012065162616809688B4093619620400091
:1015A00001F0E6FAB0E780221221A068FFF758FEAA
:1015B000C4E7C04684820510F8B5DE4657464E465D
:1015C0004546E0B505000F0092461E000A9B9E426C
:1015D00050D3330E994636020A9A0023300049460A
:1015E00043F058F980466C006419A4002F4B9C46C8
:1015F00064446368834200D260602B1FDBB29B4669
:10160000012B3DD9C0239B012343802212011A6084
:10161000AB00274A9958002907D0506943F0FCF8DD
:10162000431C5800C0180338FDD253465A012368A2
:101630005A40E0231A4080235B0123431A605A4634
:10164000012A28D980239B012343802212011A609A
:1016500043466360424600233000494643F01AF98E
:10166000AD00134B585101203CBC90469946A24610
:10167000AB46F8BD0F4B104A3321104841F004FF30
:10168000012FBFD1C0239B01234303221A60A3680B
:10169000DB07FCD5C9E72168794003220A401A60BC
:1016A000A3680122BA401A42FAD0CBE7008000407A
:1016B000B81C002064830510BC83051078830510D6
:1016C00030B583B00C2001F0D7FE00F0A7F8002859
:1016D0000DD00023092B05D899002D4A2D4888509C
:1016E0000133F7E72A4B2C4A5A6203B030BD2B4B2B
:1016F00000229A6701F032FF294B01221A60274B22
:101700005B6C012BFBD1274B03221A60234B9B6B95
:10171000012BFBD1013300930433234A01212348D9
:1017200001F018FE05230093214A0121214801F010
:1017300011FE214B0093002202210420FFF73CFF01
:101740001E4D00952B00002201210520FFF734FFDC
:10175000104C00942300002200210720FFF72CFFEB
:1017600000942300002200210820FFF725FF0A4BE8
:1017700000932300002200210920FFF71DFF0095A0
:101780002B00002200210620FFF716FFADE7C04620
:10179000B81C0020006CDC021BB700000080004079
:1017A0003CB0004030B00040002F6859008002403B
:1017B000008C864700C00240001BB70040597307E9
:1017C0008000014BC0587047B81C0020F8B51528A0
:1017D00007D0172819D0182819D0192819D0002691
:1017E00000E00026490180252D0129437400A51938
:1017F000AD00094FE951120213432C00BC4664446A
:101800006360082100F09AF8F8BD0126EAE7022695
:10181000E8E70326E6E7C04600800040034B1B686C
:1018200002201840431E9841C0B2704700C00640D5
:10183000EFF3108072B6034B1B68002BFBD0BFF395
:101840005F8F70472C0100D0BFF35F8F024B0022E7
:101850001A6080F3108870472C0100D0F8B506009C
:101860000C001500FFF7E4FFE308F718F15C07220E
:101870002240012393400B4205D1DBB20B433B7066
:10188000FFF7E2FFF8BD2100280041F097FEF0B518
:1018900083B00600019114001F00FFF7C9FFBC428E
:1018A0000ED8E308F518F35C0721214001228A4095
:1018B0001A4201D00134F2E7D2B21A432A7001E091
:1018C00001246442FFF7C0FF002C02DB200003B0BC
:1018D000F0BD019B002BF9D0089841F06FFE00008D
:1018E00000231F2B08D8054A9A189200BFF35F8F78
:1018F000002111600133F4E77047C0464000003416
:10190000054A1078431CDBB21370172B02D9130061
:1019100010221A707047C046F80C002000B583B042
:101920000100044B00931F2318220348FFF7AFFF69
:1019300003B000BDCC830510B41C002010B583009B
:10194000084A944663441C6840226240C024144004
:101950008022520113431C60C000034B9C4660442C
:10196000416010BD04C001400040014080000B4BAD
:101970009C46604400290DD00823002A0CD0042284
:101980001343026853400C2213408022520110433B
:10199000036070470023F0E70022F1E704C0014034
:1019A00010B501238340D022120693629361052172
:1019B000FFF7C4FF10BD0000074B9B68103080008C
:1019C0001950BFF35F8FBFF35F8F044B0021196085
:1019D00082F310887047C04600ED00E0240100D07B
:1019E00010B5091A0B1F0A4A94466144094A9142EC
:1019F00008D8DA0706D45B105B055B0D0648184370
:101A000080B210BD054B064AA321064841F03CFDBB
:101A1000FC070000FE0F000000E0FFFFE883051058
:101A20002C8605101884051010B5091A04394C08C5
:101A3000090B08D14905490D064A11430180064B9F
:101A40002343438010BD054B054AAB21054841F0B7
:101A50001BFDC04600F0FFFF00F8FFFF5884051093
:101A6000388605101884051001238340034A106846
:101A70001840431E9841C0B27047C04600E100E0E4
:101A8000002904D0034B1860034B18607047034BC8
:101A90001860FBE780E200E000E100E080E100E0A8
:101AA00010B5012383401800FFF7EAFF10BD0000C6
:101AB00001238340014A13607047C04600E200E002
:101AC000024B9B6810308000C058704700ED00E06A
:101AD00010B5FFF7F5FF002805D0054BC01A2F28D9
:101AE00003D8012010BD0020FCE70020FAE7C04623
:101AF000FC0C002070B504000D00EFF3108672B6E8
:101B00000C4B1B68002BFBD0BFF35F8F2000FFF74F
:101B1000D7FF094B984201D0A84205D132002900D5
:101B20002000FFF749FF70BD044B054A8621054898
:101B300041F0AAFC240100D0CD01001068840510FA
:101B40001086051018840510F0B5DE4657464E463F
:101B50004546E0B589B0814601911500EFF3108A42
:101B600072B6744B1B68002BFBD0BFF35F8F724BB8
:101B70000027DF57002F40DB7C00E419A4006F48EA
:101B800024180622A2566C4B1A706D4B9A684B466D
:101B900010339B00D35898461E001B1A2F2B38D9A0
:101BA000684B98452FD105AE674B33807B009B4631
:101BB000D8198000614B9846404402306349FFF7D2
:101BC0000FFF7080624BB380FF23B371F571019BEF
:101BD000B3605F44BF0047440ECE0EC701231C43D1
:101BE000A046524641464846FFF7E6FE09B03CBCD7
:101BF00090469946A246AB46F0BD564B564AD72171
:101C0000564841F041FC564B534ADE21534841F0BF
:101C10003BFCC04340440C2142F0FEFD002912D1A0
:101C200001239E43B34633000026DA79AA4211D934
:101C30000621595600290CDB4A00521892001E005A
:101C40003E4B9B18F1E7474B434AEA21434841F09A
:101C50001BFC1E00002E3AD005AB434A1A80813A85
:101C60005A800623F3560293002B17DA3F4805AB40
:101C70009B469880029A9A71DD71019A0792301DF5
:101C80002100FFF7ADFEB080B7717B00DB199B0030
:101C90002A4FFF185B4607CB07C7A2E77800C01999
:101CA0008000264BC0180430321DB388D90A1C2985
:101CB00007D159054915023149005118FFF790FE27
:101CC000D5E72B4B2B4AB121244841F0DDFB05AE73
:101CD0001D4B33807B000293D8198000174A904631
:101CE000020042440392901C1849FFF779FE70806D
:101CF000039A101D5946FFF773FEB0801E4B5A46DB
:101D00004146521A524153431B0DB371F571019A6A
:101D1000B260029B9C466744BF0047440ECE0EC78C
:101D2000114B5A461380813B538001231C43A0462C
:101D300057E7C046240100D093340020FC0C00205B
:101D400000ED00E0CD01001000A1FFFF2C0D0020F0
:101D500001BDFFFFA08405106086051018840510E2
:101D6000C8840510F08405100148000001BD000082
:101D70006485051050860510AAAA0000F0B5CE466D
:101D8000474680B583B006000D00EFF3108872B6A9
:101D9000564B1B68002BFBD0BFF35F8F544B9A68E8
:101DA00034001034A300D758524B9F4207D0AF42A3
:101DB00000D198E00197504BFB1A2F2B09D94246CE
:101DC00039003000FFF7F8FD03B00CBC904699468F
:101DD000F0BD3000FFF748FE814600213000FFF7DC
:101DE0005FFEBFF35F8FEFF30581002901D08C42C6
:101DF00011D10123019C9C430022A368AB4212D065
:101E00000622A256002A0DDB53009B189B002200DD
:101E1000394CE418F1E73621384B394AFF3139485B
:101E200041F032FB2200AB4256D106256557002D0A
:101E300038DB6B005B199A002F4B9B189A68A260E5
:101E4000DA79E27106229A56A2719B795BB2002B75
:101E50000FDA2D48A0806B005B199B00264AD3182F
:101E60002A4A11789971157049463000FFF718FE1B
:101E7000A5E7201D6B005B199B001F4A9B181A1DCC
:101E80009B88D90A1C2907D15905491502314900F7
:101E90005118FFF7A5FDDDE71D4B1E4AB12119487A
:101EA00041F0F2FA002912D1002A0ED0FF239371DB
:101EB000194B9380154A1378A371184B0E49641A75
:101EC000644163431B0D1370CEE70A4FF2E7201DF8
:101ED0001349FFF7A9FDC7E76A21124B084AFF31F2
:101EE000084841F0D1FA034F69E7C046240100D009
:101EF00000ED00E0CD010010FC0C00207C850510F9
:101F0000788605101884051001BD00009334002068
:101F1000648505105086051001BDFFFFAAAA0000C8
:101F2000360D0020B0850510F8B5012101432E4B78
:101F3000CB1A2F2B28D8EFF30583002B2BD0EFF3F0
:101F4000108572B6294A1268002AFBD0BFF35F8F52
:101F5000274A0400244EA41B64416243120D54B26C
:101F6000244A92689B00D2588A421BD00022032A3E
:101F700032D853009B189B001B49CB189B795BB24E
:101F8000A3421FD00132F2E7C7211B4B1B4A490075
:101F90001B4841F079FA92211A4B184AFF31184830
:101FA00041F072FA134A92681749D150174B1A78C8
:101FB00082711C70BFF35F8F0C4B00221A6085F397
:101FC0001088F8BD0E005300991889007118FF277A
:101FD0008F710F4A8A80E9E7D1210E4B074A4900E9
:101FE000074841F051FAC046FC0C0020240100D003
:101FF000AAAA000000ED00E0B88505108C86051047
:1020000018840510E0850510CD01001093340020E0
:1020100001BDFFFFEC8505100022044B02E00449DE
:1020200002C30132072AFAD97047C04600E400E033
:102030008080808000B583B00100064B00930523AB
:1020400000220548FFF723FC002801DB1F23181A94
:1020500003B000BDF485051098340020024B9C4667
:1020600061448900016070474000003410B50400ED
:10207000FFF746FC01002000FFF7F0FFFF2323716C
:10208000BFF35F8F10BD10B50400FFF739FC0100EE
:102090002000FFF7E3FFFF23237100236371BFF3E9
:1020A0005F8F10BD034B9C46614489000160BFF304
:1020B0005F8F70474000003410B504000120FFF727
:1020C0002DFC01002000FFF7EDFF10BD70B50500ED
:1020D0000C00080000F0FEFE0949200000F03EFE62
:1020E000FFF70EFC074B9C466044800068602C752F
:1020F000D0231B061B786B75A400034BE55070BD05
:1021000011240010400000342C3400200A4B1A68BF
:10211000EFF3108172B61368002BFCD0BFF35F8F12
:10212000054B1B68BFF35F8F00221A6081F3108894
:1021300040BF0020002170475434002010B5002912
:1021400022D003681B7B99421ED8174B9C466144E2
:10215000090183689C4661440C684968002A19D0CB
:1021600003681B7B9A4215D883680F4884466244F3
:1021700012019A1810685368020001208B4201D89E
:102180000ED00020C0B210BD084B094A3C210948BE
:1021900041F07AF9054B064A3C21064841F074F9B2
:1021A000A242EFD8EDE7C046FFFFFF0F24880510DD
:1021B000948A0510EC87051010B500291ED0037B0A
:1021C00099421BD84B005B18033B0468A446634448
:1021D000002919D0002A1DD0914221D0002A25D0F3
:1021E000047BA24222D804685000801803382018CB
:1021F0008170197800291FD11A7010BD104B114A37
:102200006821114841F040F9104B114A6F310E48D6
:1022100041F03AF90F4B0E4A70210B4841F034F966
:102220000D4B0B4A7121084841F02EF9044B054A29
:102230006821054841F028F941701A70DDE7C04671
:1022400048880510548A051064880510B088051068
:10225000608A0510BC880510C888051070B5060096
:102260000D001400002914D0002A14D0806873686F
:102270009847002806D0220029003000FFF79CFF75
:10228000280007E02A0021003000FFF795FF20001A
:1022900000E0100070BD0800FCE70000F0B583B05E
:1022A0000500009201930AAB1C780BAB1F78002C41
:1022B00026D003685A7B944207D10123002B19D101
:1022C000002C3BD1200003B0F0BD002C0CD01A7BB9
:1022D000944209D81A6863001B19033BD3189B78F2
:1022E000002BEBD00123E9E73E4B3F4A68213F48F2
:1022F00041F0CAF83E4B3F4A67213F4841F0C4F8DD
:1023000003689C7B002CDBD012D01A7B94420FD840
:1023100062001219033A19688C4662445178997325
:10232000002900D1D9730023937053701370C7E74D
:102330002C4B2D4A68212D4841F0A6F8002C3AD0AC
:102340002B681B7B9C4236D82C4BE3181B01AA68D8
:1023500094466344009A1A60019A5A60089A9A60F7
:10236000099ADA602E68002C2BD030D0337B9C4247
:102370002DD863001B19033B326894466344002246
:102380009A705A701A70717B22003000FFF766FF56
:102390007073844200D095E7287D009A019B00F07D
:1023A00025FD061E01D0002F17D00C9B002B00D15D
:1023B00088E71E7086E7124B124A3C210E4841F016
:1023C00063F8114B114AA521084841F05DF8054B0F
:1023D000054A6821054841F057F82868210000F0B7
:1023E0003DFFE2E748880510548A0510648805100F
:1023F000E0880510CC8A0510EC870510FFFFFF0F61
:1024000024880510948A0510E8870510748A051041
:10241000F0B5DE4657464E464546E0B58BB00990CE
:10242000002308938200B54BD658370052E0B44BD6
:10243000B44A3F21B44841F027F8B44BB44A3C2198
:10244000B44841F021F8002901D1002869D10021C8
:10245000404600F0F9FEA04219D12A686B68069246
:102460000793AB689846EB689A464346002B14D016
:10247000002C18D03B681B7B9C4214D8631EFA6862
:10248000D35C08931B0218433861002015E0A24B6F
:10249000A24A8E219F4840F0F7FFA14B9F4A92210C
:1024A0009C4840F0F1FF994B9E4A4121994840F0E9
:1024B000EBFF00239A46984600207B68BFF35F8FAE
:1024C00000221A6086F310884346002B32D1002880
:1024D00000D10CE100F000FC02000B1EA7DB002085
:1024E0000021069007917868EFF3108672B60168B4
:1024F0000029FCD0BFF35F8F396888464C7B002CE5
:10250000D7D09AD0097B8C4297D8874965182D017E
:10251000B9688C46654428686968801A9941002921
:1025200091DD2A686B68099800F060FC00239A46E8
:102530009846C2E7089B1B02234399465146180060
:10254000C04705000E007A68EFF3108B72B613686F
:1025500059424B41D9B2002BF9D1BFF35F8F002E06
:102560001EDB002E46DD3B69002B47D04B456DD16D
:1025700000F0B2FB02000B1E6EDB52197341002B00
:1025800070DB002B72DB0021049101310391029476
:1025900051460191414600913800FFF77FFE4CE023
:1025A0003B69002BDDD04B4514D1069A079B521B8B
:1025B000B341002B14DB002B16DB00210491013109
:1025C0000391029451460191414600913800FFF772
:1025D00065FE32E0554B514AA1214E4840F054FF70
:1025E00001225242524BE6E7454B464A3F214648BC
:1025F00040F04AFF002E01D1002DB4D13B68002CE1
:1026000050D05A7B944237D1012100294AD1DA7B3C
:10261000002A4DD19A7B002A03D1DA7B002A5AD1B5
:102620009C73DC73002C5CD03B681B7B9C4258D8AD
:10263000FA68013C135D0133135500233B617A684E
:10264000BFF35F8F13608BF3108843E7374B334A38
:10265000A421304840F018FF294B2A4A3F212A483C
:1026600040F012FF01225242314B8AE7244B254AA7
:102670003F21254840F008FF002C0DD01A7B9442E2
:102680000AD862001219033A1868844662449278A4
:10269000002ABAD00121B8E7264B274A68212748EB
:1026A00040F0F2FE264B274AF621244840F0ECFE8B
:1026B000002A0AD0197B8A4207D851008A18033AA7
:1026C00019688C4662445470A4E71A4B1A4A682170
:1026D0001A4840F0D9FE1C4B1A4AFB21174840F01B
:1026E000D3FE0A4B0F4A41210A4840F0CDFE0BB001
:1026F0003CBC90469946A246AB46F0BD2C34002027
:10270000008705103C8A05101C87051024880510D9
:10271000948A0510EC87051008890510E48A0510D5
:1027200020890510A08A0510FFFFFF0F2C890510D6
:10273000FFFFFF7F48880510548A05106488051044
:1027400068890510848A05108C89051010B50C4B1A
:102750005B68002B04D00A210A48FFF77FFC10BDFC
:10276000074C2300084A1021206800F07DFC03205C
:1027700000F0A6FA03212000FFF7A8FCEBE7C04613
:10278000440D0020543400203D21001010B5064BAC
:102790005B68002B01D0044810BD044B044A5E2145
:1027A000044840F071FEC046440D0020A089051089
:1027B000B48A0510EC870510F0B5DE4657464E4644
:1027C0004546E0B58BB0804616001F00149B9A4624
:1027D000159B994616AB1B789B461F2302AA94466D
:1027E000634400221A702CE0002809D04246126887
:1027F000127B904204D8421E4146C9688A5C42E07E
:10280000404B414A4121414840F03EFE0798002B91
:102810006FD05B46002B6CD04946D04704000D00BA
:1028200003000B4300D16BE0002940DB00F054FAB9
:1028300006000F1E4BDB36196F41002F4DDB002FBA
:102840004FDB43465A68EFF3108472B6136859425F
:102850004B41D9B20791002BF8D1BFF35F8F1F33E3
:1028600002AA9446634404930023039302934B46C5
:1028700001935346009332003B004046FFF70EFDA4
:10288000031EB1D1020041464968BFF35F8F0025A6
:102890000D6084F31088002B29D01F2302A98C46D9
:1028A00063441B78002BB1D112021043AFE7361BF3
:1028B000AF41002F07DB002FC3DA154B154A3F212C
:1028C000154840F0E1FD01267642144FF3E7104B26
:1028D000104A3F21104840F0D7FD012676420F4FA5
:1028E000ADE70B4B0B4A3F210B4840F0CDFD0120DB
:1028F00040420BB03CBC90469946A246AB46F0BD68
:102900000798F6E724880510A08A0510EC870510C3
:10291000008705103C8A05101C870510FFFFFF7F0C
:10292000F8B50400002900D162E04268EFF3108599
:1029300072B6136858424341D8B2002BF9D1BFF3A5
:102940005F8FCBB22268567BB3421BD10120002897
:1029500048D0206988422BD0090AC9B2002B2ED05A
:102960002068007B83422AD8581EE668305C884283
:102970002BD000206368BFF35F8F00221A6085F3BD
:102980001088F8BD002B0DD0167BB3420AD85E002C
:10299000F618033E1768BC466644B678002ED6D0BB
:1029A0000120D4E7134B144A6821144840F06CFD11
:1029B0002C21134B134AFF31134840F065FD134B94
:1029C000134A4121104840F05FFD1900100000F04B
:1029D00045FC0028CED199210E4B0A4A49000A48ED
:1029E00040F052FD23698B42C4D100232361C1E72B
:1029F0000020C6E748880510548A05106488051031
:102A0000C4890510008B0510EC870510248805107B
:102A1000A08A0510E8890510407D7047F0B587B0A1
:102A200006000F00EFF30583002B1FD1062464423C
:102A3000E517A4197D418D4202D803D1844201D902
:102A400000240025002D14DB0494059500F044F9C2
:102A500002000B1E13DBA41A9D41002D17DC14D0BD
:102A60003000390000F044F907B0F0BD234840F0D1
:102A7000A5FD234B234A3F21234840F005FD204B71
:102A8000204A3F21204840F0FFFC002CE8D0FFF70F
:102A90007DFE0023029301931C4B0093049A059B37
:102AA000FFF78AFE002818DADAE7002300E00023A7
:102AB000002BD5D1164B1A68EFF3108172B613684C
:102AC000002BFCD0BFF35F8F114B1B68BFF35F8FF0
:102AD00000221A6081F3108820BF0499059A0D4BDB
:102AE0005B6A9A42E3D80B48806A884203D29A42D2
:102AF000DBD00123DCE70123DAE7C046EC890510CF
:102B0000008705103C8A05101C8705100D21001058
:102B1000543400200040054070B504000D0000F062
:102B2000DBF802000B1E0ADB200029008018594147
:102B300000290ADB00290CDBFFF770FF70BD084B92
:102B4000084A3F21084840F09FFC012040420749C5
:102B5000F0E7034B034A3F21034840F095FCC04691
:102B6000008705103C8A05101C870510FFFFFF7FBA
:102B700010B5FA2292000023002142F00BFEFFF76D
:102B8000CBFF10BD70B584B005000C00EFF30583DA
:102B9000002B12D0244B5B6A994209D8224A926AD0
:102BA000824208D2994201D0012002E0002000E0D8
:102BB000002004B070BD0120FBE7FFF7E7FD002314
:102BC00002930193194B00932A002300FFF7F4FDB1
:102BD000061E11DC144B5B6A9C4209D8124A926AA9
:102BE000AA4207D29C4201D00120E2E70020E0E7A0
:102BF0000020DEE70120DCE720BFFFF7C7FD310042
:102C0000FFF78EFE084B5B6A9C4209D8064A926A1F
:102C1000AA4207D29C4201D00120CAE70020C8E79F
:102C20000020C6E70120C4E7004005400D21001048
:102C300070B5EFF305801038EFF3108472B61A4BBD
:102C40001B68002BFBD0BFF35F8F01221300834072
:102C500016494B6316490B60164909780D00C540AB
:102C60002A4214D0114A556A8200134E9259954255
:102C700006D38200114D525999430E4B197007E04B
:102C80000A4A031D9B0099589950002200E0002237
:102C9000BFF35F8F044B0021196084F31088002A72
:102CA00000D0904770BDC046280100D000400540CC
:102CB0003C7005409734002060340020941B0020B5
:102CC00010B50100024A0348FEF7C8FD10BDC0461A
:102CD000188B051092340020044B5B6A034A906AFB
:102CE0001900536A9942F9D17047C0460040054027
:102CF000074B5B6A8B4204D2054B5B6AFAE7044BD5
:102D00005B6A8B4203D1024B9B6A8342F7D37047C5
:102D10000040054070B504000D00FFF7DDFF020024
:102D20000B0020002900801859418B4202D804D1A1
:102D3000824202D901204042C117002902DBFFF77D
:102D4000D7FF70BD024B034A3F21034840F09CFB74
:102D500000870510A48B05101C87051070B50400B2
:102D60000D00EFF3108672B61B4B1B68002BFBD0D7
:102D7000BFF35F8F002D1CD02000FEF7A1FE174B84
:102D800083420BD019002000FEF7B4FE0121200081
:102D9000FEF786FE0123A340114A1360A400114BE5
:102DA000E550BFF35F8F0C4B00221A6086F310884A
:102DB00070BDA2000B4B0021D1500122A2400A4954
:102DC0000B7893430B7005492000FEF7D7FF0021D5
:102DD0002000FEF765FEE4E7280100D0312C00104A
:102DE00038600540941B002097340020F0B5DE4683
:102DF00000B584B00400150001921E000293FFF795
:102E00006BFF03958E4202D84ED185424CD9EFF329
:102E1000108B72B6274B1B68002BFBD0BFF35F8F64
:102E2000254A17780125A540EBB23B431370234B8D
:102E30005D63221D92000199D150A20020490298A1
:102E400050501B6A2B4212D11C4B1B6C2B4208D0DA
:102E50000020BFF35F8F174B00221A608BF310889E
:102E600023E0184B184AC521184840F00DFBFFF726
:102E700033FF8E4214D802D1039B834210D80E4BED
:102E80001B78BB420ED00D4B1D625D631F200440BA
:102E90000123A3400E4A1360074B1F701E38D8E76A
:102EA0000020D6E70120D4E7012004B004BC9346FB
:102EB000F0BDC046280100D09734002000400540F6
:102EC000603400203C8B0510BC8B0510608B051016
:102ED00080E200E010B5EFF3108472B60A4B1B6875
:102EE000002BFBD0BFF35F8F01238340074A13629F
:102EF00007490A789A430A70BFF35F8F024B00229A
:102F00001A6084F3108810BD280100D000400540ED
:102F10009734002010B500291ED0037B99421BD89E
:102F20004B005B18033B0468A4466344002919D096
:102F3000002A1DD0914221D0002A25D0047BA24234
:102F400022D804685000801803382018817019783E
:102F500000291FD11A7010BD104B114A6821114869
:102F600040F092FA104B114A6F310E4840F08CFA43
:102F70000F4B0E4A70210B4840F086FA0D4B0B4A5E
:102F80007121084840F080FA044B054A6821054841
:102F900040F07AFA41701A70DDE7C04648880510A3
:102FA000888C051064880510B0880510948C051075
:102FB000BC880510C888051070B506000D00140007
:102FC000002914D0002A14D080687368984700281C
:102FD00006D0220029003000FFF79CFF280007E000
:102FE0002A0021003000FFF795FF200000E01000CC
:102FF00070BD0800FCE7000010B5002343730133E7
:103000008373037BC3730123027B9A4214D9002B81
:103010000CD0027B934209D85A00D218033A0168B7
:103020008C4662440133DBB25370EDE70B4B0C4A24
:1030300068210C4840F028FA002A09D0924207D8AB
:10304000016853009A18033A8A180023537010BD80
:10305000024B034A6821034840F016FA48880510DD
:10306000888C05106488051010B501734260836078
:10307000FFF7C2FF10BD000070B50400081E00D1AC
:1030800070BD002934D0237B994231D84B005B18A6
:10309000033B2268944663445A78002AF0D02DD02E
:1030A000237B9A422AD853009B18033B21688C4605
:1030B00063445D7800215970002825D0237B984215
:1030C00022D843001B18033B21688C46634400212F
:1030D000597001002000FFF76FFF06002900200053
:1030E000FFF7CAFF020031002000FFF765FFC7E7C6
:1030F000084B094A6821094840F0C6F9054B064AC1
:103100006821064840F0C0F9024B034A6821034891
:1031100040F0BAF948880510888C051064880510BD
:1031200070B505000C00160000292FD034D0037BA9
:10313000994231D84B005B18033B026894466344C4
:103140005A78002A2ED19A78002A31D11978FFF7BF
:1031500093FF0300002E0AD0EA7B002A2ED1AA7B1F
:10316000002A03D1EA7B002A3BD1AC73EC73002B1D
:103170003DD1002C4FD02B7B9C424CD82B6861005A
:103180000C19033C1C190023637070BD254B264AA3
:103190003821264840F078F9254B264A68212648F0
:1031A00040F072F9254B204A3A21204840F06CF952
:1031B000234B1D4A3B211D4840F066F9002A0AD0E6
:1031C000297B8A4207D851008A18033A29688C461D
:1031D00062445470C3E7164B164A6821164840F003
:1031E00053F9184B104A4221104840F04DF9002B7A
:1031F0000BD02A7B934208D843001B18033B2A6854
:103200009446634400229A70B3E7094B094A682147
:10321000094840F039F9064B064A6821064840F053
:1032200033F9C046D88B0510A88C0510E08B05102B
:1032300048880510888C0510648805101C8C0510C2
:10324000448C05108C89051070B504000A00457B7C
:103250002900FFF765FF6073280070BD70B504009A
:10326000002966D0437B8B420ED0002911D0037B0E
:1032700099420ED84B005B18033B0268D018837844
:10328000002B0CD1002055E00121FFF7DDFF0120CC
:1032900050E0294B294A6821294840F0F5F8002BD5
:1032A0001FD0227B93421CD825685A00D318033BB9
:1032B000EA18EB5C8B421AD0002B1BD0227B934286
:1032C00018D85A00D318033B2268D21853788B427F
:1032D00016D0002BF0D11B4B1B4A6B211B4840F032
:1032E000D3F8154B154A6821154840F0CDF84378BE
:1032F000137007E0104B114A6821114840F0C4F8E0
:103300004378537000238370437001222000FFF73D
:1033100007FF0200617B814205D02000FFF74CFED1
:103320006073012006E00A4B074A7121074840F00C
:10333000ABF8002070BDC04648880510888C051089
:1033400064880510EC850510BC8C0510E08B051019
:10335000688C0510F0B5C64600B504000E00904616
:103360001D00384841F058FA0700374A4244374BAD
:103370009A423AD80100404641F04EFA0200103A13
:1033800098235B009A4236D86B1E062B39D8069BD1
:10339000013B062B35D843461A09BA4237D32D04D0
:1033A000069B1F032F432368002B36DB284B9C42D0
:1033B00044D080256D01274B1D60274B1D60274A97
:1033C00092682B009343FAD12660A060221DC0238F
:1033D0009B01134321221A602268002AFCDAE7606D
:1033E00008221A6004BC9046F0BD1D4B1D4A1121F5
:1033F0001D4840F049F81D4B1A4A19211A4840F05F
:1034000043F81B4B174A1C21174840F03DF8194B55
:10341000144A2321144840F037F822683F23134010
:10342000B342C3D1A3681B051B0D8342BED1E36821
:10343000EE22D2021340BB42B8D1D3E78025AD01C2
:10344000B9E7C046001BB70080E84BD380F8A9322B
:1034500000C0024000E0004000F0004000C000401A
:10346000D48C0510F88D0510348D0510748D051061
:10347000908D0510DC8D051080239B000343014ACD
:10348000D362704700800540024B1A68024B5A60B5
:103490007047C046602100200080054010B5020042
:1034A000164B8020C0051860154B1648186000297F
:1034B0000AD0154BE021C9041960002A09D1124B2A
:1034C000802212061A6010BD0C4BE021C90419605D
:1034D000F3E75001801A8000801800010B4B186040
:1034E00080235B04984202D3084B094A1A60FFF715
:1034F000CBFF054B8022D2051A60E4E700B00540FF
:1035000008200140FCFF010000A0054060210020D0
:10351000FFFFFF0010B5030010000C4A8024E405F3
:103520001460002B0DD001221343094A094CD461C9
:10353000094C5C401462516293620021FFF7AEFFB8
:1035400010BD034B0022DA61F7E7C04600B005402A
:1035500000800540D3C007B02D3FF84F064BAA228C
:1035600012011A602F22DA60044B054A1A60024BDE
:103570005B68002BFBDA70470040024000600240AD
:1035800000B0FA0010B50100024A0348FEF766F9E0
:1035900010BDC046048E05108C34002000B583B0E9
:1035A0000100044B00930B2300220348FEF76FF940
:1035B00003B000BD288E05108C3400200523CB56A7
:1035C000002B01DB934211D1094B9C4660444342DE
:1035D00058418000074BC058097901238B40013BBB
:1035E0009340184043425841C0B270470020FCE766
:1035F0000000D0AF8C1B002070B50A79202A19D8A2
:10360000174B9C466044434258418000154BC458B8
:1036100001239340013B497949B2002910DB08009E
:103620002025AA1A914218DC8B401C4201D00120AF
:10363000404270BD0C4B0D4A40210D483FF024FF25
:103640002020801A002805DB1A0082401442F0D0A6
:103650000138F7E701204042EBE701204042E8E76C
:103660000000D0AF8C1B0020488E0510C88E0510BE
:10367000748E051070B505000C001600FFF79EFF54
:10368000002801D0002107E015483FF097FF8B1973
:1036900012339B005A51013123798B420FD9237881
:1036A000627812021A43A3781B041A43E3781B06BC
:1036B00013434A009A5A530BE9D19219E7E70122C2
:1036C0009A401300013B074A9446654468424541CD
:1036D000B340054AAD00A9580B43AB5070BDC0467E
:1036E000B48E05100000D0AF8C1B0020F8B505008B
:1036F0000E00FEF79DF8070031002800FFF77CFF61
:10370000041E09DB020031002800FFF7B3FF380078
:10371000FEF79AF82000F8BD01483FF04FFFC04681
:10372000B48E0510F0B5C64600B506AC25784C0041
:103730006618F60086193700DC373F68BC46CC3681
:103740003668B0466418E400C83404190434C0264E
:10375000B60134438026B6022660002D16D01F26FF
:10376000052B15D95401A0256D0525434C0064187F
:10377000E40004192700DC373D60124D3543D8348E
:103780002560053B05321F242240E9E70026E7E7D4
:103790009B0652011A434C006318DB00C3181D003E
:1037A000DC352A60074A1643D8331E6063462B6017
:1037B0006118C9004018CC304346036004BC9046F1
:1037C000F0BDC04680E0000070B5046801258D4062
:1037D000AC430460002B33D04C006418E40004199F
:1037E0002500C8351E682E6004355E682E600435DD
:1037F0009E682E60DB68DC3423604C006318DB00BD
:10380000D033C31880256D012B4380252D061D6004
:103810001D60164B8B4083600B1D01252E009E40C2
:1038200080239B0103431E600E000836B5401D60D7
:103830001F231A406118C9004018D830026070BDBB
:103840004B005B18DB00C3181C00C83480256D02D8
:1038500025600434F8256D0225600434C0252D034D
:103860002560DC3300241C60C7E7C046010101016C
:1038700001308000704730B500280DD005688D42BA
:103880000FD100239D420ADD9900441864688958CD
:103890008C4208D10133F5E74842484102E001205B
:1038A00000E0002030BD0020FCE710B5884208D0C1
:1038B000002808D0002908D00A0002CAFFF7DBFF61
:1038C00010BD0120FCE70020FAE70020F8E7000027
:1038D0000D281DD88000104B1B589F460F4870477D
:1038E0000F48FCE70F48FAE70F48F8E70F48F6E7FC
:1038F0000F48F4E70F48F2E70F48F0E70F48EEE70C
:103900000F48ECE70F48EAE70F48E8E70F48E6E71B
:103910000F48E4E70F48E2E7708F0510688F051045
:10392000008F0510088F0510108F0510188F0510D7
:10393000208F0510288F0510308F0510388F051047
:10394000448F0510508F0510588F0510608F05109B
:10395000E88E0510F88E05100EB400B582B003AAEB
:1039600002CA019203689B68984702B008BC03B082
:1039700018470CB400B583B004AA02CA01920368C8
:103980009B68984703B008BC02B01847052803D8C5
:103990008300024AD3589F4600207047A88F051025
:1039A000002803D0012803D1013070470120FCE733
:1039B0000020FAE710B5002806D0002906D0002A1A
:1039C00006D0002B06D010BD45F0BEF945F0BCF97D
:1039D00045F0BAF945F0B8F910B513000C2836D8FF
:1039E00083001F4AD3589F460A230B70002010BD46
:1039F00001230B70FBE70B230B700020F7E7072375
:103A00000B700020F3E702230B700020EFE7032385
:103A10000B700020EBE709230B700020E7E704237D
:103A20000B700020E3E70D230B700020DFE7052378
:103A30000B700020DBE706230B700020D7E708237C
:103A40000B700020D3E70C230B700020CFE700227F
:103A50000A70020003491800FFF77EFF0120C6E745
:103A6000E48F0510C08F05100020704700207047BC
:103A700000207047002070470020704700207047EA
:103A800000207047002070470020704700207047DA
:103A900000207047002070470020704700207047CA
:103AA00000207047002070470020704700207047BA
:103AB00000207047002070470020704700207047AA
:103AC000002070470020704700207047002070479A
:103AD000002070470020704700207047002070478A
:103AE0000020704700207047F0B5C64600B582B090
:103AF00004000D001700019300291AD00868FCF794
:103B0000D1FC0600A008B0421AD30024B44225D24A
:103B1000A3009846B8442868FCF7C4FC844216D237
:103B20002B1DA2009858FCF7C3FC434618600134D3
:103B3000ECE7089A0C491800FFF70EFF01200EE091
:103B4000089A0A490198FFF707FF012007E083213F
:103B5000074B084A490008483FF096FC002002B095
:103B600004BC9046F0BDC046189005104890051062
:103B70008C9005109890051068910510704710B54D
:103B80000078FFF7FBFF10BDF0B5C64600B584B066
:103B90000400884615001F00FFF70CFF2B681B6808
:103BA00004220421280098470600002303600295A0
:103BB0000390002828D02000FCF77BFC251A280061
:103BC000FCF77DFC0A282BD928000A30FCF777FC8B
:103BD000002827D02018FFF7D2FF232828D1200063
:103BE000FCF767FC251A2800FCF769FC0C281BD998
:103BF00028000C30FCF763FC2418002816D02000A5
:103C0000FCF751FC241814E01E4B01931E4B00934B
:103C10001E4B1F4A41464046FFF7ABFE012421E000
:103C20000020D5E70020D8E70020E5E7002400E0E9
:103C30000024002C12D025002000FCF73AFC241AA6
:103C40002000FCF73CFC042818D9201DFCF737FCA9
:103C5000002815D02818FCF72CFC306000230393B3
:103C60003E6000240399002903D0029803685B6832
:103C70009847200004B004BC9046F0BD0020E7E760
:103C80000020EAE72492051059060000BC910510B7
:103C90000C920510F0B5C64600B584B00400884605
:103CA00015001F00FFF786FE2B681B680422042105
:103CB000280098470600002303600295039000281F
:103CC00028D02000FCF7F5FB251A2800FCF7F7FBAD
:103CD0000A282BD928000A30FCF7F1FB002827D04E
:103CE0002018FFF74CFF4F2828D12000FCF7E1FBFC
:103CF000251A2800FCF7E3FB0C281BD928000C3000
:103D0000FCF7DDFB2418002816D02000FCF7CBFBC5
:103D1000241814E01E4B01931E4B00931E4B1F4AA8
:103D200041464046FFF725FE012421E00020D5E76B
:103D30000020D8E70020E5E7002400E00024002C64
:103D400012D025002000FCF7B4FB241A2000FCF759
:103D5000B6FB042818D9201DFCF7B1FB002815D0AC
:103D60002818FCF7A6FB3060002303933E60002474
:103D70000399002903D0029803685B6898472000E4
:103D800004B004BC9046F0BD0020E7E70020EAE75D
:103D90002492051071060000BC9105100C920510CC
:103DA000F0B5C64600B584B00400884616001F0072
:103DB000FFF700FE33681B68042208213000984793
:103DC000050000230360436002960390002828D07A
:103DD0002000FCF76EFB261A3000FCF770FB0A2867
:103DE0002BD930000A30FCF76AFB002827D02018B6
:103DF000FFF7C5FE3B2828D12000FCF75AFB261A06
:103E00003000FCF75CFB0C281BD930000C30FCF7B1
:103E100056FB2418002816D02000FCF744FB241879
:103E200014E02A4B01932A4B00932A4B2A4A41461D
:103E30004046FFF79EFD012433E00020D5E7002037
:103E4000D8E70020E5E7002400E00024002C24D07F
:103E500026002000FCF72DFB241A2000FCF72FFB86
:103E600004282AD9201DFCF72AFB002827D0301867
:103E7000FCF71FFB28603000FCF71BFB341A200006
:103E8000FCF71DFB06281CD9A01DFCF718FB002819
:103E900019D03018FCF70DFB6860002303933D60D8
:103EA00000240399002903D0029803685B689847AF
:103EB000200004B004BC9046F0BD0020D5E70020EF
:103EC000D8E70020E3E70020E6E7C046249205108B
:103ED00035050000BC9105100C920510F0B5C646E2
:103EE00000B584B00400884616001F00FFF762FD8D
:103EF00033681B680422082130009847050000231E
:103F00000360436002960390002828D02000FCF74D
:103F1000D0FA261A3000FCF7D2FA0A282BD9300042
:103F20000A30FCF7CCFA002827D02018FFF727FE2C
:103F3000402828D12000FCF7BCFA261A3000FCF7F4
:103F4000BEFA0C281BD930000C30FCF7B8FA241844
:103F5000002816D02000FCF7A6FA241814E02A4BFB
:103F600001932A4B00932A4B2A4A41464046FFF7C9
:103F700000FD012433E00020D5E70020D8E7002031
:103F8000E5E7002400E00024002C24D026002000D7
:103F9000FCF78FFA241A2000FCF791FA04282AD99A
:103FA000201DFCF78CFA002827D03018FCF781FA86
:103FB00028603000FCF77DFA341A2000FCF77FFA05
:103FC00006281CD9A01DFCF77AFA002819D0301851
:103FD000FCF76FFA6860002303933D6000240399A7
:103FE000002903D0029803685B689847200004B05A
:103FF00004BC9046F0BD0020D5E70020D8E70020A3
:10400000E3E70020E6E7C04624920510F40600002E
:10401000BC9105100C920510F0B5CE46474680B510
:1040200085B00400894617001E00FFF7C3FC3B68FB
:104030001B6804222421380098470500242200210F
:1040400041F01AFF02970395002D2AD02000FCF7BB
:1040500030FA231A98461800FCF731FA0A282DD9AD
:1040600040460A30FCF72BFA002829D02018FFF729
:1040700086FD11282AD12000FCF71BFA231A984646
:104080001800FCF71CFA0C281CD940460C30FCF731
:1040900016FA2418002817D02000FCF704FA241878
:1040A00015E0294B0193B723DB000093274B284AE7
:1040B00049464846FFF75DFC012733E00020D3E77F
:1040C0000020D6E70020E4E7002400E00024002CD4
:1040D00024D0A0462000FCF7ECF9241A2000FCF7BD
:1040E000EEF904282BD9201DFCF7E9F943461C18EA
:1040F000002826D02000FCF7D6F92418002C0DD07B
:10410000144B00934B462A0021002020FFF7ECFCC3
:10411000071E07D12068FCF7C5F928620023039326
:10412000356000270399002903D0029803685B6873
:104130009847380005B00CBC90469946F0BD002069
:10414000D4E70024DAE7C04624920510BC9105109C
:104150000C92051038920510F0B5C64600B584B033
:104160000400884616001F00FFF724FC33681B6814
:10417000042214213000984705001422002141F048
:104180007BFE02960395002D28D02000FCF791F9C4
:10419000261A3000FCF793F90A282BD930000A3090
:1041A000FCF78DF9002827D02018FFF7E8FC20281D
:1041B00028D12000FCF77DF9261A3000FCF77FF9A2
:1041C0000C281BD930000C30FCF779F92418002892
:1041D00016D02000FCF767F9241814E04C4B01932B
:1041E0004C4B00934C4B4D4A41464046FFF7C1FBB8
:1041F00001246CE00020D5E70020D8E70020E5E7A7
:10420000002400E00024002C5DD026002000FCF7F4
:1042100050F9241A2000FCF752F9042863D9201D14
:10422000FCF74DF9002860D03018FCF742F92860FF
:104230003000FCF73EF9341A2000FCF740F906285C
:1042400055D9A01DFCF73BF9002852D03018FCF7D7
:1042500030F968603000FCF72CF9341A2000FCF7C4
:104260002EF9082847D920000830FCF728F9002843
:1042700043D03018FCF71DF9A8603000FCF719F99D
:10428000341A2000FCF71BF90A2838D920000A301C
:10429000FCF715F9002834D03018FCF70AF9E8606B
:1042A0003000FCF706F9341A2000FCF708F90C2856
:1042B00029D920000C30FCF702F9002825D030184D
:1042C000FCF7F7F82861002303933D60002403996D
:1042D000002903D0029803685B689847200004B067
:1042E00004BC9046F0BD00209CE700209FE7002022
:1042F000AAE70020ADE70020B9E70020BCE70020D6
:10430000C8E70020CBE70020D7E70020DAE7C04667
:10431000249205109B060000BC9105100C9205101C
:10432000F0B5C64600B584B00400884615001F00ED
:10433000FFF740FB2B681B680122012128009847EA
:1043400006000023037002950390002828D0200067
:10435000FCF7AFF8251A2800FCF7B1F80A282BD98A
:1043600028000A30FCF7ABF8002827D02018FFF708
:1043700006FC1B2828D12000FCF79BF8251A2800F2
:10438000FCF79DF80C281BD928000C30FCF797F897
:104390002418002816D02000FCF785F8241814E013
:1043A0001F4B01931F4B00931F4B204A4146404631
:1043B000FFF7DFFA012423E00020D5E70020D8E74B
:1043C0000020E5E7002400E00024002C14D02500A4
:1043D0002000FCF76EF8241A2000FCF770F804287F
:1043E0001AD9201DFCF76BF8002817D02818FFF702
:1043F000C6FB431E98413070002303933E600024A7
:104400000399002903D0029803685B68984720004D
:1044100004B004BC9046F0BD0020E5E70020E8E7CA
:10442000249205108E050000BC9105100C92051019
:10443000F0B5C64600B584B00400884616001F00DB
:10444000FFF7B8FA33681B68012202213000984751
:10445000050000230370437002960390002828D0C3
:104460002000FCF726F8261A3000FCF728F80A2866
:104470002CD930000A30FCF722F8002828D0201868
:10448000FFF77DFB4A2829D12000FCF712F8261AF5
:104490003000FCF714F80C281CD930000C30FCF765
:1044A0000EF82418002817D02000FBF7FCFF241872
:1044B00015E02C4B0193BF23DB0000932A4B2B4AC2
:1044C00041464046FFF755FA012437E00020D4E783
:1044D0000020D7E70020E4E7002400E00024002CBF
:1044E00028D026002000FBF7E4FF241A2000FBF769
:1044F000E6FF04282ED9201DFBF7E1FF00282BD072
:104500003018FFF73CFB431E984128703000FBF742
:10451000D0FF341A2000FBF7D2FF06281ED9A01DB9
:10452000FBF7CDFF00281BD03018FFF728FB431EF8
:1045300098416870002303933D600024039900298B
:1045400003D0029803685B689847200004B004BC5D
:104550009046F0BD0020D1E70020D4E70020E1E73D
:104560000020E4E724920510BC9105100C92051080
:10457000704710B5007840B2FFF7FAFF10BD000099
:10458000F0B5C64600B584B00400884615001F008B
:10459000FFF710FA2B681B680122012128009847B9
:1045A00006000023037002950390002828D0200005
:1045B000FBF77FFF251A2800FBF781FF0A282BD97C
:1045C00028000A30FBF77BFF002827D02018FFF7D0
:1045D000D6FA0C2828D12000FBF76BFF251A2800FB
:1045E000FBF76DFF0C281BD928000C30FBF767FF89
:1045F0002418002816D02000FBF755FF241814E0DB
:10460000204B0193204B0093204B214A41464046CA
:10461000FFF7AFF9012424E00020D5E70020D8E718
:104620000020E5E7002400E00024002C15D0250040
:104630002000FBF73EFF241A2000FBF740FF042870
:104640001BD9201DFBF73BFF002818D02818FFF7C7
:1046500090FFC0B2FFF79AF93070002303933E60D9
:1046600000240399002903D0029803685B689847E7
:10467000200004B004BC9046F0BD0020E4E7002018
:10468000E7E7C04624920510AC040000BC91051079
:104690000C920510F0B5C64600B584B004008846FB
:1046A00015001F00FFF786F92B681B680122012106
:1046B0002800984706000023037002950390002805
:1046C00028D02000FBF7F5FE251A2800FBF7F7FE9F
:1046D0000A282BD928000A30FBF7F1FE002827D042
:1046E0002018FFF74CFA152828D12000FBF7E1FE2F
:1046F000251A2800FBF7E3FE0C281BD928000C30F4
:10470000FBF7DDFE2418002816D02000FBF7CBFEB7
:10471000241814E0204B0193204B0093204B214A96
:1047200041464046FFF725F9012424E00020D5E763
:104730000020D8E70020E5E7002400E00024002C5A
:1047400015D025002000FBF7B4FE241A2000FBF74B
:10475000B6FE04281BD9201DFBF7B1FE002818D097
:104760002818FFF706FFC0B2FFF710F930700023DA
:1047700003933E6000240399002903D00298036844
:104780005B689847200004B004BC9046F0BD002050
:10479000E4E70020E7E7C046249205100C0500007E
:1047A000BC9105100C920510F0B5C64600B584B05A
:1047B0000400884616001F00FFF7FCF833681B68EA
:1047C000042208213000984705000023036003718C
:1047D00002960390002828D02000FBF76AFE261AD4
:1047E0003000FBF76CFE0A282BD930000A30FBF7AB
:1047F00066FE002827D02018FFF7C1F90A2828D123
:104800002000FBF756FE261A3000FBF758FE0C2856
:104810001BD930000C30FBF752FE2418002816D0AC
:104820002000FBF740FE241814E02B4B01932B4B88
:1048300000932B4B2B4A41464046FFF79AF8012440
:1048400036E00020D5E70020D8E70020E5E7002487
:1048500000E00024002C27D026002000FBF729FED2
:10486000241A2000FBF72BFE06282DD9A01DFBF7EC
:1048700026FE00282AD03018FFF77BFEC0B2FFF7D3
:1048800085F828713000FBF714FE341A2000FBF77E
:1048900016FE04281CD9201DFBF711FE002819D094
:1048A0003018FBF706FE2860002303933D600024C8
:1048B0000399002903D0029803685B689847200099
:1048C00004B004BC9046F0BD0020D2E70020D5E73C
:1048D0000020E3E70020E6E724920510DE03000055
:1048E000BC9105100C920510F0B5C64600B584B019
:1048F0000400884616001F00FFF75CF833681B6849
:104900000122022130009847050000230370437004
:1049100002960390002828D02000FBF7CAFD261A33
:104920003000FBF7CCFD0A282BD930000A30FBF70A
:10493000C6FD002827D02018FFF721F91C2828D110
:104940002000FBF7B6FD261A3000FBF7B8FD0C2857
:104950001BD930000C30FBF7B2FD2418002816D00C
:104960002000FBF7A0FD241814E02C4B01932C4BE6
:1049700000932C4B2C4A41464046FEF7FAFF012497
:1049800038E00020D5E70020D8E70020E5E7002444
:1049900000E00024002C29D026002000FBF789FD30
:1049A000241A2000FBF78BFD04282FD9201DFBF7CC
:1049B00086FD00282CD03018FFF7DBFDC0B2FEF7D3
:1049C000E5FF28703000FBF774FD341A2000FBF778
:1049D00076FD06281ED9A01DFBF771FD00281BD00F
:1049E0003018FFF7CCF8431E9841687000230393FA
:1049F0003D6000240399002903D0029803685B6896
:104A00009847200004B004BC9046F0BD0020D0E7D9
:104A10000020D3E70020E1E70120E4E7249205101D
:104A2000B7060000BC9105100C920510F0B5C64603
:104A300000B584B00400884616001F00FEF7BAFFD8
:104A400033681B68012202213000984705000023CB
:104A50000370437002960390002828D02000FBF7D3
:104A600028FD261A3000FBF72AFD0A282CD9300031
:104A70000A30FBF724FD002828D02018FFF77FF824
:104A80000B2829D12000FBF714FD261A3000FBF774
:104A900016FD0C281CD930000C30FBF710FD241833
:104AA000002817D02000FBF7FEFC241815E02D4B42
:104AB0000193E2239B0000932B4B2C4A4146404636
:104AC000FEF757FF012438E00020D4E70020D7E7A5
:104AD0000020E4E7002400E00024002C29D0260078
:104AE0002000FBF7E6FC241A2000FBF7E8FC042872
:104AF0002FD9201DFBF7E3FC00282CD03018FFF73E
:104B000038FDC0B2FEF742FF28703000FBF7D1FC41
:104B1000341A2000FBF7D3FC06281ED9A01DFBF792
:104B2000CEFC00281BD03018FFF729F8431E98410F
:104B30006870002303933D6000240399002903D08B
:104B4000029803685B689847200004B004BC904654
:104B5000F0BD0020D0E70020D3E70020E1E70120EE
:104B6000E4E7C04624920510BC9105100C92051094
:104B7000F0B5C64600B584B00400884616001F0094
:104B8000FEF718FF33681B6804220821300098479D
:104B9000050000230360037143710296039000280F
:104BA00028D02000FBF785FC261A3000FBF787FC95
:104BB0000A282BD930000A30FBF781FC002827D0C7
:104BC0002018FEF7DCFF062828D12000FBF771FC37
:104BD000261A3000FBF773FC0C281BD930000C3070
:104BE000FBF76DFC2418002816D02000FBF75BFCB7
:104BF000241814E0374B0193374B0093374B384A56
:104C000041464046FEF7B5FE01244BE00020D5E7C3
:104C10000020D8E70020E5E7002400E00024002C75
:104C20003CD026002000FBF744FC241A2000FBF7B0
:104C300046FC042842D9201DFBF741FC00283FD048
:104C40003018FBF736FC28603000FBF732FC341AD2
:104C50002000FBF734FC062834D9A01DFBF72FFCFD
:104C6000002831D03018FFF784FCC0B2FEF78EFE6A
:104C700028713000FBF71DFC341A2000FBF71FFCE5
:104C8000082823D920000830FBF719FC00281FD082
:104C90003018FEF774FF431E984168710023039398
:104CA0003D6000240399002903D0029803685B68E3
:104CB0009847200004B004BC9046F0BD0020BDE73A
:104CC0000020C0E70020CBE70020CEE70020DDE792
:104CD0000020E0E724920510D1060000BC910510E9
:104CE0000C920510F0B587B00400039116001D006A
:104CF00013681B6801220121300098470700002338
:104D000003700496059000280DD02000FBF7D1FB1E
:104D1000261A3000FBF7D3FB0A2810D930000A30DE
:104D2000FBF7CDFB0CE02E4B01932E4B00932E4B4B
:104D30002E4A03990800FEF71CFE012442E00020E1
:104D4000002803D02018FEF71AFF00E000203728C3
:104D500018D12000FBF7ADFB261A3000FBF7AFFBA4
:104D60000C2804D930000C30FBF7A9FB00E0002030
:104D70002418002804D02000FBF795FB241802E03B
:104D8000002400E00024002C18D026002000FBF7AF
:104D900090FB241A2000FBF792FB04281CD9201D4D
:104DA000FBF78DFB002819D03018FFF7E2FBC0B2EB
:104DB000039A3900FEF710FE041E03D10023059369
:104DC0002F6000240599002903D0049803685B68CC
:104DD0009847200007B0F0BD0020E3E70020E6E799
:104DE000249205101F060000BC9105100C920510BE
:104DF000F0B5C64600B584B00400884616001F0012
:104E0000FEF7D8FD33681B68012201213000984766
:104E10000500002303700296039000280DD02000A7
:104E2000FBF747FB261A3000FBF749FB0A2810D98D
:104E300030000A30FBF743FB0CE02F4B01932F4B64
:104E400000932F4B2F4A41464046FEF792FD012426
:104E500042E00020002803D02018FEF790FE00E07A
:104E60000020282818D12000FBF723FB261A300049
:104E7000FBF725FB0C2804D930000C30FBF71FFB97
:104E800000E000202418002804D02000FBF70BFBD2
:104E9000241802E0002400E00024002C18D0260092
:104EA0002000FBF706FB241A2000FBF708FB042870
:104EB0001ED9201DFBF703FB00281BD03018FFF77D
:104EC00058FBC0B242462900FEF786FD041E03D1FE
:104ED000002303933D6000240399002903D0029826
:104EE00003685B689847200004B004BC9046F0BD9E
:104EF0000020E1E70020E4E724920510A20300006F
:104F0000BC9105100C920510F0B5C64600B584B0F2
:104F10000400884616001F00FEF74CFD33681B682E
:104F200001220121300098470500002303700296FA
:104F3000039000280DD02000FBF7BBFA261A3000A2
:104F4000FBF7BDFA0A2810D930000A30FBF7B7FA90
:104F50000CE02F4B01932F4B00932F4B2F4A4146D0
:104F60004046FEF706FD012442E00020002803D061
:104F70002018FEF704FE00E00020392818D1200098
:104F8000FBF797FA261A3000FBF799FA0C2804D998
:104F900030000C30FBF793FA00E0002024180028C2
:104FA00004D02000FBF77FFA241802E0002400E080
:104FB0000024002C18D026002000FBF77AFA241ACF
:104FC0002000FBF77CFA04281ED9201DFBF777FA96
:104FD00000281BD03018FFF7CCFAC0B24246290097
:104FE000FEF7FAFC041E03D1002303933D60002466
:104FF0000399002903D0029803685B689847200052
:1050000004B004BC9046F0BD0020E1E70020E4E7D6
:1050100024920510BB030000BC9105100C920510F2
:10502000F0B5C64600B584B00400884617001E00DF
:10503000FEF7C0FC3B681B6801220421380098473A
:1050400005000422002140F017FF02970395002D70
:1050500021D02000FBF72DFA271A3800FBF72FFA92
:105060000A2824D938000A30FBF729FA002820D072
:105070002018FEF784FD082828D12000FBF719FA34
:10508000271A3800FBF71BFA0C2814D938000C300B
:10509000FBF715FA10E04F4B01934F4B00934F4B2A
:1050A0004F4A41464046FEF764FC012482E000205E
:1050B000DCE70020DFE700202418002804D02000CF
:1050C000FBF7F1F9241802E0002400E00024002C92
:1050D0006CD027002000FBF7ECF9241A2000FBF726
:1050E000EEF9042803D9201DFBF7E9F900E00020C0
:1050F000002803D03818FFF73CFA00E00020C0B2C7
:10510000FEF744FC28703800FBF7D3F93C1A200066
:10511000FBF7D5F9082804D920000830FBF7CFF9B0
:1051200000E00020002803D03818FEF728FD00E03A
:105130000020431E9841A8703800FBF7BAF93C1ACA
:105140002000FBF7BCF90A2804D920000A30FBF73D
:10515000B6F900E00020002803D03818FEF70FFD54
:1051600000E00020431E9841E8703800FBF7A1F9E9
:105170003C1A2000FBF7A3F9062803D9A01DFBF772
:105180009EF900E00020002803D03818FFF7F1F95D
:1051900000E00020002807D0012817D01149404620
:1051A000FEF7DAFB012405E000236B700023039374
:1051B000356000240399002903D0029803685B68D6
:1051C0009847200004B004BC9046F0BD01236B70EA
:1051D000ECE7C0462492051067040000BC9105105E
:1051E0000C92051040920510F0B5C64600B584B08B
:1051F0000400884616001F00FEF7DCFB33681B68BE
:10520000042228213000984705002822002140F080
:1052100033FE02960395002D28D02000FBF749F9B4
:10522000261A3000FBF74BF90A282BD930000A3038
:10523000FBF745F9002827D02018FEF7A0FC052829
:1052400028D12000FBF735F9261A3000FBF737F993
:105250000C281BD930000C30FBF731F9241800283A
:1052600016D02000FBF71FF9241814E05B4B0193C4
:105270005B4B00935B4B5C4A41464046FEF779FB33
:10528000012487E00020D5E70020D8E70020E5E7EB
:10529000002400E00024002C78D026002000FBF73A
:1052A00008F9241A2000FBF70AF9042800D87DE049
:1052B000201DFBF704F9002800D179E03018FFF732
:1052C00058F9C0B2FEF76CFB28703000FBF7F1F81C
:1052D000341A2000FBF7F3F806286BD9A01DFBF762
:1052E000EEF8002868D03018FBF7E3F8686030006B
:1052F000FBF7DFF8341A2000FBF7E1F808285DD946
:1053000020000830FBF7DBF8002859D03018FBF7F5
:10531000D0F8A8603000FBF7CCF8341A2000FBF777
:10532000CEF80A284ED920000A30FBF7C8F800282A
:105330004AD03018FBF7BDF8E8603000FBF7B9F849
:10534000341A2000FBF7BBF80C283FD920000C30A2
:10535000FBF7B5F800283BD03018FBF7AAF8286116
:105360003000FBF7A6F8341A2000FBF7A8F80E2847
:1053700030D920000E30FBF7A2F800282CD03018CE
:10538000FFF7F7F8C0B2FEF701FB2875002303937F
:105390003D6000240399002903D0029803685B68EC
:1053A0009847200004B004BC9046F0BD002082E77E
:1053B000002086E7002094E7002097E70020A3E77D
:1053C0000020A6E70020B2E70020B5E70020C1E7F3
:1053D0000020C4E70020D0E70020D3E72492051086
:1053E0005E050000BC9105100C920510F0B5C64694
:1053F00000B584B00400884616001F00FEF7DAFAF4
:1054000033681B68042218213000984705001822D1
:10541000002140F031FD02960395002D28D0200098
:10542000FBF747F8261A3000FBF749F80A282BD972
:1054300030000A30FBF743F8002827D02018FEF789
:105440009EFB012828D12000FBF733F8261A3000F4
:10545000FBF735F80C281BD930000C30FBF72FF880
:105460002418002816D02000FBF71DF8241814E09B
:105470005B4B01935B4B00935B4B5C4A4146404660
:10548000FEF777FA012487E00020D5E70020D8E76F
:105490000020E5E7002400E00024002C78D026005E
:1054A0002000FBF706F8241A2000FBF708F8042870
:1054B00000D87DE0201DFBF702F8002800D179E03C
:1054C0003018FFF756F8C0B2FEF76AFA28703000BD
:1054D000FAF7EFFF341A2000FAF7F1FF06286BD92C
:1054E000A01DFAF7ECFF002868D03018FAF7E1FFAA
:1054F00068603000FAF7DDFF341A2000FAF7DFFFAA
:1055000008285DD920000830FAF7D9FF002859D0C3
:105510003018FAF7CEFFA8603000FAF7CAFF341A45
:105520002000FAF7CCFF0A284ED920000A30FAF7FB
:10553000C6FF00284AD03018FFF71BF8C0B2FEF7AC
:1055400025FA28733000FAF7B4FF341A2000FAF76E
:10555000B6FF0C283CD920000C30FAF7B0FF002829
:1055600038D03018FAF7A5FF28613000FAF7A1FF0C
:10557000341A2000FAF7A3FF0E282DD920000E3090
:10558000FAF79DFF002829D03018FAF792FF6861DA
:10559000002303933D6000240399002903D002985F
:1055A00003685B689847200004B004BC9046F0BDD7
:1055B000002082E7002086E7002094E7002097E79C
:1055C0000020A3E70020A6E70020B2E70020B5E70F
:1055D0000020C4E70120C7E70020D3E70120D6E779
:1055E00024920510F9030000BC9105100C920510DF
:1055F000F0B5C64600B584B00400884616001F000A
:10560000FEF7D8F933681B6804221C213000984744
:1056100005001C22002140F02FFC02960395002D6E
:1056200028D02000FAF745FF261A3000FAF747FF86
:105630000A282BD930000A30FAF741FF002827D07A
:105640002018FEF79CFA022828D12000FAF731FF33
:10565000261A3000FAF733FF0C281BD930000C3023
:10566000FAF72DFF2418002816D02000FAF71BFFA8
:10567000241814E0694B0193694B0093694B6A4A03
:1056800041464046FEF775F901249EE00020D5E72B
:105690000020D8E70020E5E7002400E00024002CEB
:1056A00000D18EE026002000FAF703FF241A200024
:1056B000FAF705FF042800D893E0201DFAF7FFFE53
:1056C000002800D18FE03018FEF753FFC0B2FEF77C
:1056D00067F928703000FAF7ECFE341A2000FAF768
:1056E000EEFE062800D880E0A01DFAF7E8FE0028AC
:1056F00000D17CE03018FAF7DCFE68603000FAF781
:10570000D8FE341A2000FAF7DAFE082800D870E034
:1057100020000830FAF7D3FE00286CD03018FAF7D2
:10572000C8FEA8603000FAF7C4FE341A2000FAF769
:10573000C6FE0A2861D920000A30FAF7C0FE002808
:105740005DD03018FAF7B5FEE8603000FAF7B1FE28
:10575000341A2000FAF7B3FE0C2852D920000C307E
:10576000FAF7ADFE00284ED03018FEF702FFC0B2A7
:10577000FEF70CF928743000FAF79BFE341A20006B
:10578000FAF79DFE0E2840D920000E30FAF797FE5A
:1057900000283CD03018FAF78CFE68613000FAF728
:1057A00088FE341A2000FAF78AFE102831D920002A
:1057B0001030FAF784FE00282DD03018FAF779FE61
:1057C000A861002303933D6000240399002903D0BE
:1057D000029803685B689847200004B004BC9046B8
:1057E000F0BD00206CE7002070E700207FE700207C
:1057F00083E7002090E7002093E700209FE7002048
:10580000A2E70020AEE70020B1E70020C0E70120BA
:10581000C3E70020CFE70120D2E7C046249205105D
:1058200023040000BC9105100C920510704710B5C0
:105830000068FFF7FBFF10BDF0B5C64600B584B0A9
:105840000400884615001F00FEF7B4F82B681B689B
:1058500004220421280098470600002303600295D3
:105860000390002828D02000FAF723FE251A2800EC
:10587000FAF725FE0A282BD928000A30FAF71FFE6E
:10588000002827D02018FEF77AF9092828D120000F
:10589000FAF70FFE251A2800FAF711FE0C281BD97B
:1058A00028000C30FAF70BFE2418002816D0200030
:1058B000FAF7F9FD241814E01E4B01931E4B0093D8
:1058C0001E4B1F4A41464046FEF753F8012421E093
:1058D0000020D5E70020D8E70020E5E7002400E01D
:1058E0000024002C12D025002000FAF7E2FD241A33
:1058F0002000FAF7E4FD042818D9201DFAF7DFFD8F
:10590000002815D02818FFF792FF3060002303937A
:105910003E6000240399002903D0029803685B6865
:105920009847200004B004BC9046F0BD0020E7E793
:105930000020EAE72492051041060000BC91051002
:105940000C920510F0B5CE4600B582B004000D00F3
:1059500001921F0000233B6039F0D7FD0090060044
:105960002000FAF7A6FD231A99461800FAF7A7FDBA
:10597000082804D948460830FAF7A1FD00E00020C5
:10598000002804D02018FAF794FD814601E0012395
:105990009946832E0FD8202E1FD02B681B684A46AD
:1059A000009928009847386000280BD0002002B0EA
:1059B00004BC9146F0BD009A1E490198FDF7CCFF4A
:1059C0000120F4E7009B9E001B4B9A594B461B4954
:1059D0000198FDF7C1FF0120E9E72000FAF769FD12
:1059E000261A3000FAF76BFD062816D9B01DFAF713
:1059F00066FD2418002812D02000FAF754FD241860
:105A0000002C0ED0211D2B685B684A462800984761
:105A1000386000280BD00020C9E70020E9E7002407
:105A2000EEE707490198FDF797FF0120BFE7012046
:105A3000BDE7C0466C9205102C990510C092051068
:105A4000F8920510F0B583B004000D0017001E0099
:105A5000002200233FF08EF9002804D000233B6091
:105A6000336003B0F0BD32002000290044F024FA76
:105A700000221D4B3FF03BF93FF0BAFA3FF010FA1D
:105A800004000D1E14DC00290ED080231B069C424E
:105A900010D0002D26DC21D033681F3302DA00231A
:105AA000336000243C60DCE780231B069842ECD97D
:105AB00043F04AF9002DECD1EA0F002312196B4193
:105AC0001C001300E10700930194520811430C00DD
:105AD000019B5D10336801333360DAE780231B06D6
